{
  "contractName": "Vehicle",
  "abi": [
    {
      "inputs": [],
      "payable": false,
      "stateMutability": "nonpayable",
      "type": "constructor"
    },
    {
      "anonymous": false,
      "inputs": [
        {
          "indexed": true,
          "internalType": "address",
          "name": "owner",
          "type": "address"
        },
        {
          "indexed": true,
          "internalType": "address",
          "name": "approved",
          "type": "address"
        },
        {
          "indexed": true,
          "internalType": "uint256",
          "name": "tokenId",
          "type": "uint256"
        }
      ],
      "name": "Approval",
      "type": "event"
    },
    {
      "anonymous": false,
      "inputs": [
        {
          "indexed": true,
          "internalType": "address",
          "name": "owner",
          "type": "address"
        },
        {
          "indexed": true,
          "internalType": "address",
          "name": "operator",
          "type": "address"
        },
        {
          "indexed": false,
          "internalType": "bool",
          "name": "approved",
          "type": "bool"
        }
      ],
      "name": "ApprovalForAll",
      "type": "event"
    },
    {
      "anonymous": false,
      "inputs": [
        {
          "indexed": true,
          "internalType": "address",
          "name": "owner",
          "type": "address"
        },
        {
          "indexed": true,
          "internalType": "uint256",
          "name": "tokenId",
          "type": "uint256"
        }
      ],
      "name": "ApprovalRemoved",
      "type": "event"
    },
    {
      "anonymous": false,
      "inputs": [
        {
          "indexed": true,
          "internalType": "address",
          "name": "from",
          "type": "address"
        },
        {
          "indexed": true,
          "internalType": "address",
          "name": "to",
          "type": "address"
        },
        {
          "indexed": true,
          "internalType": "uint256",
          "name": "tokenId",
          "type": "uint256"
        }
      ],
      "name": "Transfer",
      "type": "event"
    },
    {
      "anonymous": false,
      "inputs": [
        {
          "indexed": false,
          "internalType": "uint256",
          "name": "vehicleId",
          "type": "uint256"
        },
        {
          "indexed": false,
          "internalType": "bytes32",
          "name": "newLicensePlate",
          "type": "bytes32"
        }
      ],
      "name": "licensePlateChanged",
      "type": "event"
    },
    {
      "anonymous": false,
      "inputs": [
        {
          "indexed": false,
          "internalType": "bytes32",
          "name": "myNewLicensePlate",
          "type": "bytes32"
        },
        {
          "indexed": false,
          "internalType": "bytes32",
          "name": "myOldLicensePlate",
          "type": "bytes32"
        }
      ],
      "name": "licensePlateSwapped",
      "type": "event"
    },
    {
      "anonymous": false,
      "inputs": [
        {
          "indexed": false,
          "internalType": "uint256",
          "name": "vehicleId",
          "type": "uint256"
        },
        {
          "indexed": false,
          "internalType": "uint256",
          "name": "accidentId",
          "type": "uint256"
        },
        {
          "indexed": false,
          "internalType": "uint256",
          "name": "newServicingId",
          "type": "uint256"
        }
      ],
      "name": "servicingToAccidentLinked",
      "type": "event"
    },
    {
      "anonymous": false,
      "inputs": [
        {
          "indexed": false,
          "internalType": "uint256",
          "name": "vehicleId",
          "type": "uint256"
        },
        {
          "indexed": false,
          "internalType": "uint256",
          "name": "newAccidentId",
          "type": "uint256"
        }
      ],
      "name": "vehAccidentDetailsRecorded",
      "type": "event"
    },
    {
      "anonymous": false,
      "inputs": [
        {
          "indexed": false,
          "internalType": "uint256",
          "name": "vehicleId",
          "type": "uint256"
        },
        {
          "indexed": false,
          "internalType": "uint256",
          "name": "accidentId",
          "type": "uint256"
        }
      ],
      "name": "vehAccidentHistory2Retrieved",
      "type": "event"
    },
    {
      "anonymous": false,
      "inputs": [
        {
          "indexed": false,
          "internalType": "uint256",
          "name": "vehicleId",
          "type": "uint256"
        },
        {
          "indexed": false,
          "internalType": "uint256",
          "name": "accidentId",
          "type": "uint256"
        }
      ],
      "name": "vehAccidentHistoryRetrieved",
      "type": "event"
    },
    {
      "anonymous": false,
      "inputs": [
        {
          "indexed": false,
          "internalType": "uint256",
          "name": "vehicleId",
          "type": "uint256"
        }
      ],
      "name": "vehAccidentRecordsRetrieved",
      "type": "event"
    },
    {
      "anonymous": false,
      "inputs": [
        {
          "indexed": false,
          "internalType": "uint256",
          "name": "vehicleId",
          "type": "uint256"
        },
        {
          "indexed": false,
          "internalType": "uint256",
          "name": "ownerId",
          "type": "uint256"
        }
      ],
      "name": "vehOwnerDetailsRecorded",
      "type": "event"
    },
    {
      "anonymous": false,
      "inputs": [
        {
          "indexed": false,
          "internalType": "uint256",
          "name": "vehicleId",
          "type": "uint256"
        },
        {
          "indexed": false,
          "internalType": "uint256",
          "name": "ownerId",
          "type": "uint256"
        }
      ],
      "name": "vehOwnerDetailsUpdated",
      "type": "event"
    },
    {
      "anonymous": false,
      "inputs": [
        {
          "indexed": false,
          "internalType": "uint256",
          "name": "vehicleId",
          "type": "uint256"
        },
        {
          "indexed": false,
          "internalType": "bytes32",
          "name": "owner",
          "type": "bytes32"
        },
        {
          "indexed": false,
          "internalType": "uint256",
          "name": "contact",
          "type": "uint256"
        },
        {
          "indexed": false,
          "internalType": "bytes32",
          "name": "ownerPhysicalAddress",
          "type": "bytes32"
        },
        {
          "indexed": false,
          "internalType": "address",
          "name": "ownerAddress",
          "type": "address"
        }
      ],
      "name": "vehOwnershipHistoryRetrieved",
      "type": "event"
    },
    {
      "anonymous": false,
      "inputs": [
        {
          "indexed": false,
          "internalType": "uint256",
          "name": "vehicleId",
          "type": "uint256"
        }
      ],
      "name": "vehRegDetails1Added",
      "type": "event"
    },
    {
      "anonymous": false,
      "inputs": [
        {
          "indexed": false,
          "internalType": "uint256",
          "name": "vehicleId",
          "type": "uint256"
        },
        {
          "indexed": false,
          "internalType": "uint256",
          "name": "omv",
          "type": "uint256"
        },
        {
          "indexed": false,
          "internalType": "bytes32",
          "name": "originalRegDate",
          "type": "bytes32"
        },
        {
          "indexed": false,
          "internalType": "bytes32",
          "name": "effectiveRegDate",
          "type": "bytes32"
        }
      ],
      "name": "vehRegDetails1Part2Returned",
      "type": "event"
    },
    {
      "anonymous": false,
      "inputs": [
        {
          "indexed": false,
          "internalType": "uint256",
          "name": "vehicleId",
          "type": "uint256"
        },
        {
          "indexed": false,
          "internalType": "bytes32",
          "name": "vehicleNo",
          "type": "bytes32"
        },
        {
          "indexed": false,
          "internalType": "bytes32",
          "name": "makeModel",
          "type": "bytes32"
        }
      ],
      "name": "vehRegDetails1Returned",
      "type": "event"
    },
    {
      "anonymous": false,
      "inputs": [
        {
          "indexed": false,
          "internalType": "uint256",
          "name": "vehicleId",
          "type": "uint256"
        },
        {
          "indexed": false,
          "internalType": "bytes32",
          "name": "newEffectiveDate",
          "type": "bytes32"
        }
      ],
      "name": "vehRegDetails1Updated",
      "type": "event"
    },
    {
      "anonymous": false,
      "inputs": [
        {
          "indexed": false,
          "internalType": "uint256",
          "name": "vehicleId",
          "type": "uint256"
        }
      ],
      "name": "vehRegDetails2Added",
      "type": "event"
    },
    {
      "anonymous": false,
      "inputs": [
        {
          "indexed": false,
          "internalType": "uint256",
          "name": "vehicleId",
          "type": "uint256"
        },
        {
          "indexed": false,
          "internalType": "bytes32",
          "name": "ownerName",
          "type": "bytes32"
        },
        {
          "indexed": false,
          "internalType": "bytes32",
          "name": "engineCap",
          "type": "bytes32"
        }
      ],
      "name": "vehRegDetails2Returned",
      "type": "event"
    },
    {
      "anonymous": false,
      "inputs": [
        {
          "indexed": false,
          "internalType": "uint256",
          "name": "vehicleId",
          "type": "uint256"
        },
        {
          "indexed": false,
          "internalType": "uint256",
          "name": "quotaPrem",
          "type": "uint256"
        }
      ],
      "name": "vehRegDetails2Updated",
      "type": "event"
    },
    {
      "anonymous": false,
      "inputs": [
        {
          "indexed": false,
          "internalType": "uint256",
          "name": "vehicleId",
          "type": "uint256"
        },
        {
          "indexed": false,
          "internalType": "uint256",
          "name": "newServicingId",
          "type": "uint256"
        }
      ],
      "name": "vehServicingDetailsRecorded",
      "type": "event"
    },
    {
      "anonymous": false,
      "inputs": [
        {
          "indexed": false,
          "internalType": "uint256",
          "name": "vehicleId",
          "type": "uint256"
        },
        {
          "indexed": false,
          "internalType": "uint256",
          "name": "servicingId",
          "type": "uint256"
        }
      ],
      "name": "vehServicingHistory2Retrieved",
      "type": "event"
    },
    {
      "anonymous": false,
      "inputs": [
        {
          "indexed": false,
          "internalType": "uint256",
          "name": "vehicleId",
          "type": "uint256"
        },
        {
          "indexed": false,
          "internalType": "uint256",
          "name": "servicingId",
          "type": "uint256"
        }
      ],
      "name": "vehServicingHistoryRetrieved",
      "type": "event"
    },
    {
      "anonymous": false,
      "inputs": [
        {
          "indexed": false,
          "internalType": "uint256",
          "name": "vehicleId",
          "type": "uint256"
        }
      ],
      "name": "vehServicingRecordsRetrieved",
      "type": "event"
    },
    {
      "anonymous": false,
      "inputs": [
        {
          "indexed": false,
          "internalType": "uint256",
          "name": "vehicleId",
          "type": "uint256"
        },
        {
          "indexed": false,
          "internalType": "address",
          "name": "currentOwnerAddress",
          "type": "address"
        },
        {
          "indexed": false,
          "internalType": "address",
          "name": "newOwnerAddress",
          "type": "address"
        }
      ],
      "name": "vehTransferInfoUpdated",
      "type": "event"
    },
    {
      "anonymous": false,
      "inputs": [
        {
          "indexed": false,
          "internalType": "uint256",
          "name": "vehicleId",
          "type": "uint256"
        }
      ],
      "name": "vehicleDeregistered",
      "type": "event"
    },
    {
      "constant": false,
      "inputs": [
        {
          "internalType": "address",
          "name": "to",
          "type": "address"
        },
        {
          "internalType": "uint256",
          "name": "tokenId",
          "type": "uint256"
        }
      ],
      "name": "approve",
      "outputs": [],
      "payable": false,
      "stateMutability": "nonpayable",
      "type": "function"
    },
    {
      "constant": true,
      "inputs": [
        {
          "internalType": "address",
          "name": "owner",
          "type": "address"
        }
      ],
      "name": "balanceOf",
      "outputs": [
        {
          "internalType": "uint256",
          "name": "",
          "type": "uint256"
        }
      ],
      "payable": false,
      "stateMutability": "view",
      "type": "function"
    },
    {
      "constant": true,
      "inputs": [
        {
          "internalType": "uint256",
          "name": "tokenId",
          "type": "uint256"
        }
      ],
      "name": "getApproved",
      "outputs": [
        {
          "internalType": "address",
          "name": "",
          "type": "address"
        }
      ],
      "payable": false,
      "stateMutability": "view",
      "type": "function"
    },
    {
      "constant": true,
      "inputs": [
        {
          "internalType": "address",
          "name": "owner",
          "type": "address"
        },
        {
          "internalType": "address",
          "name": "operator",
          "type": "address"
        }
      ],
      "name": "isApprovedForAll",
      "outputs": [
        {
          "internalType": "bool",
          "name": "",
          "type": "bool"
        }
      ],
      "payable": false,
      "stateMutability": "view",
      "type": "function"
    },
    {
      "constant": true,
      "inputs": [],
      "name": "name",
      "outputs": [
        {
          "internalType": "string",
          "name": "",
          "type": "string"
        }
      ],
      "payable": false,
      "stateMutability": "view",
      "type": "function"
    },
    {
      "constant": true,
      "inputs": [
        {
          "internalType": "uint256",
          "name": "tokenId",
          "type": "uint256"
        }
      ],
      "name": "ownerOf",
      "outputs": [
        {
          "internalType": "address",
          "name": "",
          "type": "address"
        }
      ],
      "payable": false,
      "stateMutability": "view",
      "type": "function"
    },
    {
      "constant": false,
      "inputs": [
        {
          "internalType": "uint256",
          "name": "tokenId",
          "type": "uint256"
        }
      ],
      "name": "removeApproval",
      "outputs": [],
      "payable": false,
      "stateMutability": "nonpayable",
      "type": "function"
    },
    {
      "constant": false,
      "inputs": [
        {
          "internalType": "address",
          "name": "from",
          "type": "address"
        },
        {
          "internalType": "address",
          "name": "to",
          "type": "address"
        },
        {
          "internalType": "uint256",
          "name": "tokenId",
          "type": "uint256"
        }
      ],
      "name": "safeTransferFrom",
      "outputs": [],
      "payable": false,
      "stateMutability": "nonpayable",
      "type": "function"
    },
    {
      "constant": false,
      "inputs": [
        {
          "internalType": "address",
          "name": "from",
          "type": "address"
        },
        {
          "internalType": "address",
          "name": "to",
          "type": "address"
        },
        {
          "internalType": "uint256",
          "name": "tokenId",
          "type": "uint256"
        },
        {
          "internalType": "bytes",
          "name": "_data",
          "type": "bytes"
        }
      ],
      "name": "safeTransferFrom",
      "outputs": [],
      "payable": false,
      "stateMutability": "nonpayable",
      "type": "function"
    },
    {
      "constant": false,
      "inputs": [
        {
          "internalType": "address",
          "name": "to",
          "type": "address"
        },
        {
          "internalType": "bool",
          "name": "approved",
          "type": "bool"
        }
      ],
      "name": "setApprovalForAll",
      "outputs": [],
      "payable": false,
      "stateMutability": "nonpayable",
      "type": "function"
    },
    {
      "constant": true,
      "inputs": [
        {
          "internalType": "bytes4",
          "name": "interfaceId",
          "type": "bytes4"
        }
      ],
      "name": "supportsInterface",
      "outputs": [
        {
          "internalType": "bool",
          "name": "",
          "type": "bool"
        }
      ],
      "payable": false,
      "stateMutability": "view",
      "type": "function"
    },
    {
      "constant": true,
      "inputs": [],
      "name": "symbol",
      "outputs": [
        {
          "internalType": "string",
          "name": "",
          "type": "string"
        }
      ],
      "payable": false,
      "stateMutability": "view",
      "type": "function"
    },
    {
      "constant": true,
      "inputs": [
        {
          "internalType": "uint256",
          "name": "index",
          "type": "uint256"
        }
      ],
      "name": "tokenByIndex",
      "outputs": [
        {
          "internalType": "uint256",
          "name": "",
          "type": "uint256"
        }
      ],
      "payable": false,
      "stateMutability": "view",
      "type": "function"
    },
    {
      "constant": true,
      "inputs": [
        {
          "internalType": "address",
          "name": "owner",
          "type": "address"
        },
        {
          "internalType": "uint256",
          "name": "index",
          "type": "uint256"
        }
      ],
      "name": "tokenOfOwnerByIndex",
      "outputs": [
        {
          "internalType": "uint256",
          "name": "",
          "type": "uint256"
        }
      ],
      "payable": false,
      "stateMutability": "view",
      "type": "function"
    },
    {
      "constant": true,
      "inputs": [
        {
          "internalType": "uint256",
          "name": "tokenId",
          "type": "uint256"
        }
      ],
      "name": "tokenURI",
      "outputs": [
        {
          "internalType": "string",
          "name": "",
          "type": "string"
        }
      ],
      "payable": false,
      "stateMutability": "view",
      "type": "function"
    },
    {
      "constant": true,
      "inputs": [],
      "name": "totalSupply",
      "outputs": [
        {
          "internalType": "uint256",
          "name": "",
          "type": "uint256"
        }
      ],
      "payable": false,
      "stateMutability": "view",
      "type": "function"
    },
    {
      "constant": false,
      "inputs": [
        {
          "internalType": "address",
          "name": "from",
          "type": "address"
        },
        {
          "internalType": "address",
          "name": "to",
          "type": "address"
        },
        {
          "internalType": "uint256",
          "name": "tokenId",
          "type": "uint256"
        }
      ],
      "name": "transferFrom",
      "outputs": [],
      "payable": false,
      "stateMutability": "nonpayable",
      "type": "function"
    },
    {
      "constant": false,
      "inputs": [
        {
          "internalType": "bytes32",
          "name": "vehicleNo",
          "type": "bytes32"
        },
        {
          "internalType": "bytes32",
          "name": "makeModel",
          "type": "bytes32"
        },
        {
          "internalType": "uint256",
          "name": "manufacturingYear",
          "type": "uint256"
        },
        {
          "internalType": "bytes32",
          "name": "engineNo",
          "type": "bytes32"
        },
        {
          "internalType": "bytes32",
          "name": "chassisNo",
          "type": "bytes32"
        },
        {
          "internalType": "uint256",
          "name": "omv",
          "type": "uint256"
        },
        {
          "internalType": "bytes32",
          "name": "originalRegDate",
          "type": "bytes32"
        },
        {
          "internalType": "bytes32",
          "name": "effectiveRegDate",
          "type": "bytes32"
        }
      ],
      "name": "addRegisteredVeh1",
      "outputs": [
        {
          "internalType": "uint256",
          "name": "",
          "type": "uint256"
        }
      ],
      "payable": false,
      "stateMutability": "nonpayable",
      "type": "function"
    },
    {
      "constant": false,
      "inputs": [
        {
          "internalType": "uint256",
          "name": "noOfTransfers",
          "type": "uint256"
        },
        {
          "internalType": "bytes32",
          "name": "engineCap",
          "type": "bytes32"
        },
        {
          "internalType": "bytes32",
          "name": "coeCat",
          "type": "bytes32"
        },
        {
          "internalType": "uint256",
          "name": "quotaPrem",
          "type": "uint256"
        },
        {
          "internalType": "bytes32",
          "name": "owner",
          "type": "bytes32"
        },
        {
          "internalType": "address",
          "name": "ownerAddress",
          "type": "address"
        }
      ],
      "name": "addRegisteredVeh2",
      "outputs": [
        {
          "internalType": "uint256",
          "name": "",
          "type": "uint256"
        }
      ],
      "payable": false,
      "stateMutability": "nonpayable",
      "type": "function"
    },
    {
      "constant": false,
      "inputs": [
        {
          "internalType": "uint256",
          "name": "vehicleId",
          "type": "uint256"
        }
      ],
      "name": "retrieveVehInfo1",
      "outputs": [
        {
          "internalType": "bytes32",
          "name": "",
          "type": "bytes32"
        },
        {
          "internalType": "bytes32",
          "name": "",
          "type": "bytes32"
        },
        {
          "internalType": "uint256",
          "name": "",
          "type": "uint256"
        },
        {
          "internalType": "bytes32",
          "name": "",
          "type": "bytes32"
        },
        {
          "internalType": "bytes32",
          "name": "",
          "type": "bytes32"
        }
      ],
      "payable": false,
      "stateMutability": "nonpayable",
      "type": "function"
    },
    {
      "constant": false,
      "inputs": [
        {
          "internalType": "uint256",
          "name": "vehicleId",
          "type": "uint256"
        }
      ],
      "name": "retrieveVehInfo1Part2",
      "outputs": [
        {
          "internalType": "uint256",
          "name": "",
          "type": "uint256"
        },
        {
          "internalType": "bytes32",
          "name": "",
          "type": "bytes32"
        },
        {
          "internalType": "bytes32",
          "name": "",
          "type": "bytes32"
        }
      ],
      "payable": false,
      "stateMutability": "nonpayable",
      "type": "function"
    },
    {
      "constant": false,
      "inputs": [
        {
          "internalType": "uint256",
          "name": "vehicleId",
          "type": "uint256"
        }
      ],
      "name": "retrieveVehInfo2",
      "outputs": [
        {
          "internalType": "uint256",
          "name": "",
          "type": "uint256"
        },
        {
          "internalType": "bytes32",
          "name": "",
          "type": "bytes32"
        },
        {
          "internalType": "bytes32",
          "name": "",
          "type": "bytes32"
        },
        {
          "internalType": "uint256",
          "name": "",
          "type": "uint256"
        },
        {
          "internalType": "bytes32",
          "name": "",
          "type": "bytes32"
        }
      ],
      "payable": false,
      "stateMutability": "nonpayable",
      "type": "function"
    },
    {
      "constant": false,
      "inputs": [
        {
          "internalType": "uint256",
          "name": "vehicleId",
          "type": "uint256"
        },
        {
          "internalType": "bytes32",
          "name": "_effectiveRegDate",
          "type": "bytes32"
        }
      ],
      "name": "updateVehInfo1",
      "outputs": [
        {
          "internalType": "bool",
          "name": "",
          "type": "bool"
        }
      ],
      "payable": false,
      "stateMutability": "nonpayable",
      "type": "function"
    },
    {
      "constant": false,
      "inputs": [
        {
          "internalType": "uint256",
          "name": "vehicleId",
          "type": "uint256"
        },
        {
          "internalType": "bytes32",
          "name": "_vehicleNo",
          "type": "bytes32"
        }
      ],
      "name": "updateVehNo",
      "outputs": [
        {
          "internalType": "bool",
          "name": "",
          "type": "bool"
        }
      ],
      "payable": false,
      "stateMutability": "nonpayable",
      "type": "function"
    },
    {
      "constant": false,
      "inputs": [
        {
          "internalType": "uint256",
          "name": "myVehicleId",
          "type": "uint256"
        },
        {
          "internalType": "uint256",
          "name": "otherVehicleId",
          "type": "uint256"
        }
      ],
      "name": "swapLicensePlateNo",
      "outputs": [
        {
          "internalType": "bool",
          "name": "",
          "type": "bool"
        }
      ],
      "payable": false,
      "stateMutability": "nonpayable",
      "type": "function"
    },
    {
      "constant": false,
      "inputs": [
        {
          "internalType": "uint256",
          "name": "vehicleId",
          "type": "uint256"
        },
        {
          "internalType": "uint256",
          "name": "_quotaPrem",
          "type": "uint256"
        }
      ],
      "name": "updateVehInfo2",
      "outputs": [
        {
          "internalType": "bool",
          "name": "",
          "type": "bool"
        }
      ],
      "payable": false,
      "stateMutability": "nonpayable",
      "type": "function"
    },
    {
      "constant": false,
      "inputs": [
        {
          "internalType": "uint256",
          "name": "vehicleId",
          "type": "uint256"
        },
        {
          "internalType": "bytes32",
          "name": "newOwner",
          "type": "bytes32"
        },
        {
          "internalType": "uint256",
          "name": "newOwnerContact",
          "type": "uint256"
        },
        {
          "internalType": "bytes32",
          "name": "newOwnerPhysicalAddress",
          "type": "bytes32"
        },
        {
          "internalType": "address",
          "name": "newOwnerAddress",
          "type": "address"
        }
      ],
      "name": "transferVehicleUpdate",
      "outputs": [
        {
          "internalType": "bool",
          "name": "",
          "type": "bool"
        }
      ],
      "payable": false,
      "stateMutability": "nonpayable",
      "type": "function"
    },
    {
      "constant": false,
      "inputs": [
        {
          "internalType": "uint256",
          "name": "vehicleId",
          "type": "uint256"
        }
      ],
      "name": "deregisterVeh",
      "outputs": [
        {
          "internalType": "bool",
          "name": "",
          "type": "bool"
        }
      ],
      "payable": false,
      "stateMutability": "nonpayable",
      "type": "function"
    },
    {
      "constant": false,
      "inputs": [
        {
          "internalType": "uint256",
          "name": "vehicleId",
          "type": "uint256"
        },
        {
          "internalType": "uint256",
          "name": "ownerId",
          "type": "uint256"
        },
        {
          "internalType": "bytes32",
          "name": "ownerName",
          "type": "bytes32"
        },
        {
          "internalType": "uint256",
          "name": "ownerContact",
          "type": "uint256"
        },
        {
          "internalType": "bytes32",
          "name": "ownerPhysicalAddress",
          "type": "bytes32"
        },
        {
          "internalType": "address",
          "name": "ownerAddress",
          "type": "address"
        }
      ],
      "name": "registerNewOwnerDetails",
      "outputs": [
        {
          "internalType": "bool",
          "name": "",
          "type": "bool"
        }
      ],
      "payable": false,
      "stateMutability": "nonpayable",
      "type": "function"
    },
    {
      "constant": false,
      "inputs": [
        {
          "internalType": "uint256",
          "name": "vehicleId",
          "type": "uint256"
        },
        {
          "internalType": "uint256",
          "name": "ownerId",
          "type": "uint256"
        }
      ],
      "name": "getOwnershipHistory",
      "outputs": [
        {
          "internalType": "bytes32",
          "name": "",
          "type": "bytes32"
        },
        {
          "internalType": "uint256",
          "name": "",
          "type": "uint256"
        },
        {
          "internalType": "bytes32",
          "name": "",
          "type": "bytes32"
        },
        {
          "internalType": "address",
          "name": "",
          "type": "address"
        }
      ],
      "payable": false,
      "stateMutability": "nonpayable",
      "type": "function"
    },
    {
      "constant": false,
      "inputs": [
        {
          "internalType": "uint256",
          "name": "vehicleId",
          "type": "uint256"
        },
        {
          "internalType": "bytes32",
          "name": "_ownerName",
          "type": "bytes32"
        },
        {
          "internalType": "uint256",
          "name": "_ownerContact",
          "type": "uint256"
        },
        {
          "internalType": "bytes32",
          "name": "_ownerPhysicalAddress",
          "type": "bytes32"
        }
      ],
      "name": "updateOwnerDetails",
      "outputs": [
        {
          "internalType": "bool",
          "name": "",
          "type": "bool"
        }
      ],
      "payable": false,
      "stateMutability": "nonpayable",
      "type": "function"
    },
    {
      "constant": false,
      "inputs": [
        {
          "internalType": "uint256",
          "name": "vehicleId",
          "type": "uint256"
        },
        {
          "internalType": "bytes32",
          "name": "dateCompleted",
          "type": "bytes32"
        },
        {
          "internalType": "bytes32",
          "name": "workshopRegNo",
          "type": "bytes32"
        },
        {
          "internalType": "bytes32",
          "name": "typeOfWorkDone",
          "type": "bytes32"
        },
        {
          "internalType": "bytes32",
          "name": "appointedMechanic",
          "type": "bytes32"
        },
        {
          "internalType": "bytes32",
          "name": "currentMileage",
          "type": "bytes32"
        },
        {
          "internalType": "bytes32",
          "name": "workDone",
          "type": "bytes32"
        },
        {
          "internalType": "bytes32",
          "name": "totalCharges",
          "type": "bytes32"
        },
        {
          "internalType": "uint256",
          "name": "accidentId",
          "type": "uint256"
        }
      ],
      "name": "addServicingRec",
      "outputs": [
        {
          "internalType": "uint256",
          "name": "",
          "type": "uint256"
        }
      ],
      "payable": false,
      "stateMutability": "nonpayable",
      "type": "function"
    },
    {
      "constant": false,
      "inputs": [
        {
          "internalType": "uint256",
          "name": "vehicleId",
          "type": "uint256"
        },
        {
          "internalType": "uint256",
          "name": "servicingId",
          "type": "uint256"
        }
      ],
      "name": "retrieveServHistory1",
      "outputs": [
        {
          "internalType": "bytes32",
          "name": "",
          "type": "bytes32"
        },
        {
          "internalType": "bytes32",
          "name": "",
          "type": "bytes32"
        },
        {
          "internalType": "bytes32",
          "name": "",
          "type": "bytes32"
        },
        {
          "internalType": "bytes32",
          "name": "",
          "type": "bytes32"
        },
        {
          "internalType": "bytes32",
          "name": "",
          "type": "bytes32"
        }
      ],
      "payable": false,
      "stateMutability": "nonpayable",
      "type": "function"
    },
    {
      "constant": false,
      "inputs": [
        {
          "internalType": "uint256",
          "name": "vehicleId",
          "type": "uint256"
        },
        {
          "internalType": "uint256",
          "name": "servicingId",
          "type": "uint256"
        }
      ],
      "name": "retrieveServHistory2",
      "outputs": [
        {
          "internalType": "bytes32",
          "name": "",
          "type": "bytes32"
        },
        {
          "internalType": "bytes32",
          "name": "",
          "type": "bytes32"
        }
      ],
      "payable": false,
      "stateMutability": "nonpayable",
      "type": "function"
    },
    {
      "constant": false,
      "inputs": [
        {
          "internalType": "uint256",
          "name": "vehicleId",
          "type": "uint256"
        },
        {
          "internalType": "bytes32",
          "name": "accidentDateLocation",
          "type": "bytes32"
        },
        {
          "internalType": "bytes32",
          "name": "driverName",
          "type": "bytes32"
        },
        {
          "internalType": "bytes32",
          "name": "timeOfAccident",
          "type": "bytes32"
        },
        {
          "internalType": "bytes32",
          "name": "descriptionOfAccident",
          "type": "bytes32"
        }
      ],
      "name": "addAccidentRec",
      "outputs": [
        {
          "internalType": "uint256",
          "name": "",
          "type": "uint256"
        }
      ],
      "payable": false,
      "stateMutability": "nonpayable",
      "type": "function"
    },
    {
      "constant": false,
      "inputs": [
        {
          "internalType": "uint256",
          "name": "vehicleId",
          "type": "uint256"
        },
        {
          "internalType": "uint256",
          "name": "accidentId",
          "type": "uint256"
        }
      ],
      "name": "getAccidentHistory1",
      "outputs": [
        {
          "internalType": "bytes32",
          "name": "",
          "type": "bytes32"
        },
        {
          "internalType": "bytes32",
          "name": "",
          "type": "bytes32"
        },
        {
          "internalType": "bytes32",
          "name": "",
          "type": "bytes32"
        },
        {
          "internalType": "bytes32",
          "name": "",
          "type": "bytes32"
        }
      ],
      "payable": false,
      "stateMutability": "nonpayable",
      "type": "function"
    },
    {
      "constant": false,
      "inputs": [
        {
          "internalType": "uint256",
          "name": "vehicleId",
          "type": "uint256"
        },
        {
          "internalType": "uint256",
          "name": "accidentId",
          "type": "uint256"
        }
      ],
      "name": "getAccidentHistory2",
      "outputs": [
        {
          "internalType": "bytes32",
          "name": "",
          "type": "bytes32"
        },
        {
          "internalType": "uint256",
          "name": "",
          "type": "uint256"
        },
        {
          "internalType": "bytes32",
          "name": "",
          "type": "bytes32"
        }
      ],
      "payable": false,
      "stateMutability": "nonpayable",
      "type": "function"
    },
    {
      "constant": false,
      "inputs": [
        {
          "internalType": "uint256",
          "name": "vehicleId",
          "type": "uint256"
        }
      ],
      "name": "getAllVehServicingRecords",
      "outputs": [
        {
          "internalType": "uint256[]",
          "name": "",
          "type": "uint256[]"
        }
      ],
      "payable": false,
      "stateMutability": "nonpayable",
      "type": "function"
    },
    {
      "constant": false,
      "inputs": [
        {
          "internalType": "uint256",
          "name": "vehicleId",
          "type": "uint256"
        }
      ],
      "name": "getAllVehAccidentRecords",
      "outputs": [
        {
          "internalType": "uint256[]",
          "name": "",
          "type": "uint256[]"
        }
      ],
      "payable": false,
      "stateMutability": "nonpayable",
      "type": "function"
    },
    {
      "constant": true,
      "inputs": [],
      "name": "getOwnerOfContract",
      "outputs": [
        {
          "internalType": "address",
          "name": "",
          "type": "address"
        }
      ],
      "payable": false,
      "stateMutability": "view",
      "type": "function"
    },
    {
      "constant": true,
      "inputs": [
        {
          "internalType": "uint256",
          "name": "vehicleId",
          "type": "uint256"
        }
      ],
      "name": "getCurrentVehOwnerAddress",
      "outputs": [
        {
          "internalType": "address",
          "name": "",
          "type": "address"
        }
      ],
      "payable": false,
      "stateMutability": "view",
      "type": "function"
    },
    {
      "constant": true,
      "inputs": [
        {
          "internalType": "uint256",
          "name": "vehicleId",
          "type": "uint256"
        }
      ],
      "name": "getNoOfTransfers",
      "outputs": [
        {
          "internalType": "uint256",
          "name": "",
          "type": "uint256"
        }
      ],
      "payable": false,
      "stateMutability": "view",
      "type": "function"
    },
    {
      "constant": true,
      "inputs": [
        {
          "internalType": "uint256",
          "name": "vehicleId",
          "type": "uint256"
        }
      ],
      "name": "getNoOfServicingRecords",
      "outputs": [
        {
          "internalType": "uint256",
          "name": "",
          "type": "uint256"
        }
      ],
      "payable": false,
      "stateMutability": "view",
      "type": "function"
    },
    {
      "constant": true,
      "inputs": [
        {
          "internalType": "uint256",
          "name": "vehicleId",
          "type": "uint256"
        }
      ],
      "name": "getNoOfAccidentRecords",
      "outputs": [
        {
          "internalType": "uint256",
          "name": "",
          "type": "uint256"
        }
      ],
      "payable": false,
      "stateMutability": "view",
      "type": "function"
    },
    {
      "constant": true,
      "inputs": [
        {
          "internalType": "uint256",
          "name": "vehicleId",
          "type": "uint256"
        }
      ],
      "name": "doesVehicleExists",
      "outputs": [
        {
          "internalType": "bool",
          "name": "",
          "type": "bool"
        }
      ],
      "payable": false,
      "stateMutability": "view",
      "type": "function"
    },
    {
      "constant": true,
      "inputs": [
        {
          "internalType": "uint256",
          "name": "tokenId",
          "type": "uint256"
        }
      ],
      "name": "doesERC721TokenExists",
      "outputs": [
        {
          "internalType": "bool",
          "name": "",
          "type": "bool"
        }
      ],
      "payable": false,
      "stateMutability": "view",
      "type": "function"
    }
  ],
  "bytecode": "0x608060405233600d60006101000a81548173ffffffffffffffffffffffffffffffffffffffff021916908373ffffffffffffffffffffffffffffffffffffffff1602179055503480156200005257600080fd5b506040518060400160405280600781526020017f56656869636c65000000000000000000000000000000000000000000000000008152506040518060400160405280600381526020017f56454800000000000000000000000000000000000000000000000000000000008152508181620000d96301ffc9a760e01b6200015d60201b60201c565b620000f16380ac58cd60e01b6200015d60201b60201c565b6200010963780e9d6360e01b6200015d60201b60201c565b81600990805190602001906200012192919062000266565b5080600a90805190602001906200013a92919062000266565b5062000153635b5e139f60e01b6200015d60201b60201c565b5050505062000315565b63ffffffff60e01b817bffffffffffffffffffffffffffffffffffffffffffffffffffffffff19161415620001fa576040517f08c379a000000000000000000000000000000000000000000000000000000000815260040180806020018281038252601c8152602001807f4552433136353a20696e76616c696420696e746572666163652069640000000081525060200191505060405180910390fd5b6001600080837bffffffffffffffffffffffffffffffffffffffffffffffffffffffff19167bffffffffffffffffffffffffffffffffffffffffffffffffffffffff1916815260200190815260200160002060006101000a81548160ff02191690831515021790555050565b828054600181600116156101000203166002900490600052602060002090601f016020900481019282601f10620002a957805160ff1916838001178555620002da565b82800160010185558215620002da579182015b82811115620002d9578251825591602001919060010190620002bc565b5b509050620002e99190620002ed565b5090565b6200031291905b808211156200030e576000816000905550600101620002f4565b5090565b90565b615e5980620003256000396000f3fe608060405234801561001057600080fd5b506004361061028a5760003560e01c806374f4d2211161015c578063bedd4455116100ce578063d4163d7211610087578063d4163d72146112e9578063d797562f14611339578063e985e9c51461137b578063f27486b2146113f7578063f2dc19f71461143d578063fa8c689c1461148d5761028a565b8063bedd445514611070578063c25da6b6146110b6578063c523f2e2146110f8578063c5e0ae0f14611162578063c87b56dd146111ef578063d179e3c9146112965761028a565b806395d89b411161012057806395d89b4114610dbc5780639bbe3ada14610e3f578063a22cb46514610e6d578063ada119cd14610ebd578063b522291514610f25578063b88d4fde14610f6b5761028a565b806374f4d22114610b945780637b94db7514610c27578063827d7d4d14610c775780638ab92e4014610d015780638c2f814d14610d5b5761028a565b80632f745c59116102005780636352211e116101b95780636352211e1461092557806364ae4ded146109935780636934c566146109e35780636bfd1c5814610a255780636d4bee7e14610ab357806370a0823114610b3c5761028a565b80632f745c59146106a957806342842e0e1461070b5780634c7529bd146107795780634f6ccce7146107fc5780635140d1801461083e57806362f96fe8146108a25761028a565b806315720f581161025257806315720f581461047d57806318160ddd146104cd578063201a8cb4146104eb5780632190018d1461055957806323b872dd146105b757806326c11a3f146106255761028a565b806301ffc9a71461028f57806306fdde03146102f4578063081812fc14610377578063095ea7b3146103e55780631567802a14610433575b600080fd5b6102da600480360360208110156102a557600080fd5b8101908080357bffffffffffffffffffffffffffffffffffffffffffffffffffffffff191690602001909291905050506114eb565b604051808215151515815260200191505060405180910390f35b6102fc611552565b6040518080602001828103825283818151815260200191508051906020019080838360005b8381101561033c578082015181840152602081019050610321565b50505050905090810190601f1680156103695780820380516001836020036101000a031916815260200191505b509250505060405180910390f35b6103a36004803603602081101561038d57600080fd5b81019080803590602001909291905050506115f4565b604051808273ffffffffffffffffffffffffffffffffffffffff1673ffffffffffffffffffffffffffffffffffffffff16815260200191505060405180910390f35b610431600480360360408110156103fb57600080fd5b81019080803573ffffffffffffffffffffffffffffffffffffffff1690602001909291908035906020019092919050505061168f565b005b61043b611868565b604051808273ffffffffffffffffffffffffffffffffffffffff1673ffffffffffffffffffffffffffffffffffffffff16815260200191505060405180910390f35b6104b36004803603604081101561049357600080fd5b810190808035906020019092919080359060200190929190505050611892565b604051808215151515815260200191505060405180910390f35b6104d56119a1565b6040518082815260200191505060405180910390f35b6105176004803603602081101561050157600080fd5b81019080803590602001909291905050506119ae565b604051808273ffffffffffffffffffffffffffffffffffffffff1673ffffffffffffffffffffffffffffffffffffffff16815260200191505060405180910390f35b6105856004803603602081101561056f57600080fd5b81019080803590602001909291905050506119ee565b604051808681526020018581526020018481526020018381526020018281526020019550505050505060405180910390f35b610623600480360360608110156105cd57600080fd5b81019080803573ffffffffffffffffffffffffffffffffffffffff169060200190929190803573ffffffffffffffffffffffffffffffffffffffff16906020019092919080359060200190929190505050611b5c565b005b61068f600480360360a081101561063b57600080fd5b8101908080359060200190929190803590602001909291908035906020019092919080359060200190929190803573ffffffffffffffffffffffffffffffffffffffff169060200190929190505050611bac565b604051808215151515815260200191505060405180910390f35b6106f5600480360360408110156106bf57600080fd5b81019080803573ffffffffffffffffffffffffffffffffffffffff16906020019092919080359060200190929190505050611dd2565b6040518082815260200191505060405180910390f35b6107776004803603606081101561072157600080fd5b81019080803573ffffffffffffffffffffffffffffffffffffffff169060200190929190803573ffffffffffffffffffffffffffffffffffffffff16906020019092919080359060200190929190505050611e91565b005b6107a56004803603602081101561078f57600080fd5b8101908080359060200190929190505050611eb1565b6040518080602001828103825283818151815260200191508051906020019060200280838360005b838110156107e85780820151818401526020810190506107cd565b505050509050019250505060405180910390f35b6108286004803603602081101561081257600080fd5b8101908080359060200190929190505050611fce565b6040518082815260200191505060405180910390f35b6108886004803603608081101561085457600080fd5b810190808035906020019092919080359060200190929190803590602001909291908035906020019092919050505061204e565b604051808215151515815260200191505060405180910390f35b6108ce600480360360208110156108b857600080fd5b8101908080359060200190929190505050612232565b6040518080602001828103825283818151815260200191508051906020019060200280838360005b838110156109115780820151818401526020810190506108f6565b505050509050019250505060405180910390f35b6109516004803603602081101561093b57600080fd5b810190808035906020019092919050505061234f565b604051808273ffffffffffffffffffffffffffffffffffffffff1673ffffffffffffffffffffffffffffffffffffffff16815260200191505060405180910390f35b6109c9600480360360408110156109a957600080fd5b810190808035906020019092919080359060200190929190505050612417565b604051808215151515815260200191505060405180910390f35b610a0f600480360360208110156109f957600080fd5b810190808035906020019092919050505061250e565b6040518082815260200191505060405180910390f35b610a99600480360360c0811015610a3b57600080fd5b810190808035906020019092919080359060200190929190803590602001909291908035906020019092919080359060200190929190803573ffffffffffffffffffffffffffffffffffffffff16906020019092919050505061252e565b604051808215151515815260200191505060405180910390f35b610b266004803603610100811015610aca57600080fd5b810190808035906020019092919080359060200190929190803590602001909291908035906020019092919080359060200190929190803590602001909291908035906020019092919080359060200190929190505050612700565b6040518082815260200191505060405180910390f35b610b7e60048036036020811015610b5257600080fd5b81019080803573ffffffffffffffffffffffffffffffffffffffff169060200190929190505050612837565b6040518082815260200191505060405180910390f35b610c116004803603610120811015610bab57600080fd5b8101908080359060200190929190803590602001909291908035906020019092919080359060200190929190803590602001909291908035906020019092919080359060200190929190803590602001909291908035906020019092919050505061290c565b6040518082815260200191505060405180910390f35b610c5360048036036020811015610c3d57600080fd5b8101908080359060200190929190505050612b88565b60405180848152602001838152602001828152602001935050505060405180910390f35b610ceb600480360360c0811015610c8d57600080fd5b810190808035906020019092919080359060200190929190803590602001909291908035906020019092919080359060200190929190803573ffffffffffffffffffffffffffffffffffffffff169060200190929190505050612cbb565b6040518082815260200191505060405180910390f35b610d3760048036036040811015610d1757600080fd5b810190808035906020019092919080359060200190929190505050612ea3565b60405180848152602001838152602001828152602001935050505060405180910390f35b610d9160048036036040811015610d7157600080fd5b810190808035906020019092919080359060200190929190505050613057565b6040518085815260200184815260200183815260200182815260200194505050505060405180910390f35b610dc4613238565b6040518080602001828103825283818151815260200191508051906020019080838360005b83811015610e04578082015181840152602081019050610de9565b50505050905090810190601f168015610e315780820380516001836020036101000a031916815260200191505b509250505060405180910390f35b610e6b60048036036020811015610e5557600080fd5b81019080803590602001909291905050506132da565b005b610ebb60048036036040811015610e8357600080fd5b81019080803573ffffffffffffffffffffffffffffffffffffffff1690602001909291908035151590602001909291905050506133e9565b005b610ef360048036036040811015610ed357600080fd5b81019080803590602001909291908035906020019092919050505061358c565b604051808681526020018581526020018481526020018381526020018281526020019550505050505060405180910390f35b610f5160048036036020811015610f3b57600080fd5b810190808035906020019092919050505061379a565b604051808215151515815260200191505060405180910390f35b61106e60048036036080811015610f8157600080fd5b81019080803573ffffffffffffffffffffffffffffffffffffffff169060200190929190803573ffffffffffffffffffffffffffffffffffffffff1690602001909291908035906020019092919080359060200190640100000000811115610fe857600080fd5b820183602082011115610ffa57600080fd5b8035906020019184600183028401116401000000008311171561101c57600080fd5b91908080601f016020809104026020016040519081016040528093929190818152602001838380828437600081840152601f19601f8201169050808301925050505050505091929192905050506137ac565b005b61109c6004803603602081101561108657600080fd5b810190808035906020019092919050505061381e565b604051808215151515815260200191505060405180910390f35b6110e2600480360360208110156110cc57600080fd5b810190808035906020019092919050505061384b565b6040518082815260200191505060405180910390f35b61114c600480360360a081101561110e57600080fd5b810190808035906020019092919080359060200190929190803590602001909291908035906020019092919080359060200190929190505050613868565b6040518082815260200191505060405180910390f35b6111986004803603604081101561117857600080fd5b810190808035906020019092919080359060200190929190505050613a99565b604051808581526020018481526020018381526020018273ffffffffffffffffffffffffffffffffffffffff1673ffffffffffffffffffffffffffffffffffffffff16815260200194505050505060405180910390f35b61121b6004803603602081101561120557600080fd5b8101908080359060200190929190505050613d14565b6040518080602001828103825283818151815260200191508051906020019080838360005b8381101561125b578082015181840152602081019050611240565b50505050905090810190601f1680156112885780820380516001836020036101000a031916815260200191505b509250505060405180910390f35b6112cc600480360360408110156112ac57600080fd5b810190808035906020019092919080359060200190929190505050613e27565b604051808381526020018281526020019250505060405180910390f35b61131f600480360360408110156112ff57600080fd5b810190808035906020019092919080359060200190929190505050613fc4565b604051808215151515815260200191505060405180910390f35b6113656004803603602081101561134f57600080fd5b8101908080359060200190929190505050614168565b6040518082815260200191505060405180910390f35b6113dd6004803603604081101561139157600080fd5b81019080803573ffffffffffffffffffffffffffffffffffffffff169060200190929190803573ffffffffffffffffffffffffffffffffffffffff169060200190929190505050614185565b604051808215151515815260200191505060405180910390f35b6114236004803603602081101561140d57600080fd5b8101908080359060200190929190505050614219565b604051808215151515815260200191505060405180910390f35b6114736004803603604081101561145357600080fd5b8101908080359060200190929190803590602001909291905050506143eb565b604051808215151515815260200191505060405180910390f35b6114b9600480360360208110156114a357600080fd5b81019080803590602001909291905050506144e2565b604051808681526020018581526020018481526020018381526020018281526020019550505050505060405180910390f35b6000806000837bffffffffffffffffffffffffffffffffffffffffffffffffffffffff19167bffffffffffffffffffffffffffffffffffffffffffffffffffffffff1916815260200190815260200160002060009054906101000a900460ff169050919050565b606060098054600181600116156101000203166002900480601f0160208091040260200160405190810160405280929190818152602001828054600181600116156101000203166002900480156115ea5780601f106115bf576101008083540402835291602001916115ea565b820191906000526020600020905b8154815290600101906020018083116115cd57829003601f168201915b5050505050905090565b60006115ff82614650565b611654576040517f08c379a000000000000000000000000000000000000000000000000000000000815260040180806020018281038252602c815260200180615c98602c913960400191505060405180910390fd5b6002600083815260200190815260200160002060009054906101000a900473ffffffffffffffffffffffffffffffffffffffff169050919050565b600061169a8261234f565b90508073ffffffffffffffffffffffffffffffffffffffff168373ffffffffffffffffffffffffffffffffffffffff161415611721576040517f08c379a0000000000000000000000000000000000000000000000000000000008152600401808060200182810382526021815260200180615d4f6021913960400191505060405180910390fd5b8073ffffffffffffffffffffffffffffffffffffffff163373ffffffffffffffffffffffffffffffffffffffff16148061176157506117608133614185565b5b6117b6576040517f08c379a0000000000000000000000000000000000000000000000000000000008152600401808060200182810382526038815260200180615bcf6038913960400191505060405180910390fd5b826002600084815260200190815260200160002060006101000a81548173ffffffffffffffffffffffffffffffffffffffff021916908373ffffffffffffffffffffffffffffffffffffffff160217905550818373ffffffffffffffffffffffffffffffffffffffff168273ffffffffffffffffffffffffffffffffffffffff167f8c5be1e5ebec7d5bd14f71427d1e84f3dd0314c0f7b2291e5b200ac8c7c3b92560405160405180910390a4505050565b6000600d60009054906101000a900473ffffffffffffffffffffffffffffffffffffffff16905090565b600082600f600082815260200190815260200160002060080160009054906101000a900460ff1661190e576040517f08c379a0000000000000000000000000000000000000000000000000000000008152600401808060200182810382526034815260200180615b636034913960400191505060405180910390fd5b83600e60008581526020019081526020016000208190555082600f6000868152602001908152602001600020600001819055507f3983d554d769e3c0447714ecfcd1fe4d7ebe648fe0161358fe07c964f4f2515984600f600087815260200190815260200160002060000154604051808381526020018281526020019250505060405180910390a1600191505092915050565b6000600780549050905090565b60006010600083815260200190815260200160002060050160009054906101000a900473ffffffffffffffffffffffffffffffffffffffff169050919050565b6000806000806000856010600082815260200190815260200160002060050160149054906101000a900460ff16611a70576040517f08c379a0000000000000000000000000000000000000000000000000000000008152600401808060200182810382526034815260200180615b636034913960400191505060405180910390fd5b6000601060008981526020019081526020016000206000015490506000601060008a81526020019081526020016000206001015490506000601060008b81526020019081526020016000206002015490506000601060008c81526020019081526020016000206003015490506000601060008d81526020019081526020016000206004015490507f8627c4e9658b504d76d37c202f0b71894b55826ccd336051b8ff9f1eccb8e4888c828660405180848152602001838152602001828152602001935050505060405180910390a184848484849a509a509a509a509a5050505050505091939590929450565b8273ffffffffffffffffffffffffffffffffffffffff16611b7c8261234f565b73ffffffffffffffffffffffffffffffffffffffff1614611b9c57600080fd5b611ba78383836146c2565b505050565b6000856010600082815260200190815260200160002060050160149054906101000a900460ff16611c28576040517f08c379a0000000000000000000000000000000000000000000000000000000008152600401808060200182810382526034815260200180615b636034913960400191505060405180910390fd5b60006010600089815260200190815260200160002060050160009054906101000a900473ffffffffffffffffffffffffffffffffffffffff16905086601060008a81526020019081526020016000206004018190555083601060008a815260200190815260200160002060050160006101000a81548173ffffffffffffffffffffffffffffffffffffffff021916908373ffffffffffffffffffffffffffffffffffffffff16021790555060106000898152602001908152602001600020600001600081548092919060010191905055506000601060008a8152602001908152602001600020600001549050611d2289828a8a8a8a61252e565b507f3ce8cf0ff763ea85285051c4b6c9131f11db4dc096fd52ba6595ec8d2e48ad06898387604051808481526020018373ffffffffffffffffffffffffffffffffffffffff1673ffffffffffffffffffffffffffffffffffffffff1681526020018273ffffffffffffffffffffffffffffffffffffffff1673ffffffffffffffffffffffffffffffffffffffff168152602001935050505060405180910390a16001935050505095945050505050565b6000611ddd83612837565b8210611e34576040517f08c379a000000000000000000000000000000000000000000000000000000000815260040180806020018281038252602b815260200180615ab2602b913960400191505060405180910390fd5b600560008473ffffffffffffffffffffffffffffffffffffffff1673ffffffffffffffffffffffffffffffffffffffff1681526020019081526020016000208281548110611e7e57fe5b9060005260206000200154905092915050565b611eac838383604051806020016040528060008152506137ac565b505050565b6060816010600082815260200190815260200160002060050160149054906101000a900460ff16611f2d576040517f08c379a0000000000000000000000000000000000000000000000000000000008152600401808060200182810382526034815260200180615b636034913960400191505060405180910390fd5b7f759250ed216882e4706cd94657a444abfdb750395b80200efdbdde0f15d2a2f3836040518082815260200191505060405180910390a160136000848152602001908152602001600020805480602002602001604051908101604052809291908181526020018280548015611fc157602002820191906000526020600020905b815481526020019060010190808311611fad575b5050505050915050919050565b6000611fd86119a1565b821061202f576040517f08c379a000000000000000000000000000000000000000000000000000000000815260040180806020018281038252602c815260200180615d70602c913960400191505060405180910390fd5b6007828154811061203c57fe5b90600052602060002001549050919050565b6000846010600082815260200190815260200160002060050160149054906101000a900460ff166120ca576040517f08c379a0000000000000000000000000000000000000000000000000000000008152600401808060200182810382526034815260200180615b636034913960400191505060405180910390fd5b60006120d58761250e565b905060116000888152602001908152602001600020600082815260200190815260200160002060040160149054906101000a900460ff16612161576040517f08c379a0000000000000000000000000000000000000000000000000000000008152600401808060200182810382526038815260200180615b976038913960400191505060405180910390fd5b8560116000898152602001908152602001600020600083815260200190815260200160002060010181905550846011600089815260200190815260200160002060008381526020019081526020016000206002018190555083601160008981526020019081526020016000206000838152602001908152602001600020600301819055507ffe4f4f2ef787f55bb1d167e4cc442accf6ec7e54c4aacaede07ed4a3cc8f4d808782604051808381526020018281526020019250505060405180910390a1600192505050949350505050565b6060816010600082815260200190815260200160002060050160149054906101000a900460ff166122ae576040517f08c379a0000000000000000000000000000000000000000000000000000000008152600401808060200182810382526034815260200180615b636034913960400191505060405180910390fd5b7f494d6235f42726524a9ac3b2aaae946509da5c7f2261a597e2d75849e153bf72836040518082815260200191505060405180910390a16016600084815260200190815260200160002080548060200260200160405190810160405280929190818152602001828054801561234257602002820191906000526020600020905b81548152602001906001019080831161232e575b5050505050915050919050565b6000806001600084815260200190815260200160002060009054906101000a900473ffffffffffffffffffffffffffffffffffffffff169050600073ffffffffffffffffffffffffffffffffffffffff168173ffffffffffffffffffffffffffffffffffffffff16141561240e576040517f08c379a0000000000000000000000000000000000000000000000000000000008152600401808060200182810382526029815260200180615c316029913960400191505060405180910390fd5b80915050919050565b600082600f600082815260200190815260200160002060080160009054906101000a900460ff16612493576040517f08c379a0000000000000000000000000000000000000000000000000000000008152600401808060200182810382526034815260200180615b636034913960400191505060405180910390fd5b82600f6000868152602001908152602001600020600701819055507f475df76bfa4bbef4cac9f5e14ef58045731e88b1f29c37e6b0d908abbf4015a484600f600087815260200190815260200160002060070154604051808381526020018281526020019250505060405180910390a1600191505092915050565b600060106000838152602001908152602001600020600001549050919050565b6000866010600082815260200190815260200160002060050160149054906101000a900460ff166125aa576040517f08c379a0000000000000000000000000000000000000000000000000000000008152600401808060200182810382526034815260200180615b636034913960400191505060405180910390fd5b6125b261580b565b6040518060c001604052808981526020018881526020018781526020018681526020018573ffffffffffffffffffffffffffffffffffffffff16815260200160011515815250905080601160008b815260200190815260200160002060008a81526020019081526020016000206000820151816000015560208201518160010155604082015181600201556060820151816003015560808201518160040160006101000a81548173ffffffffffffffffffffffffffffffffffffffff021916908373ffffffffffffffffffffffffffffffffffffffff16021790555060a08201518160040160146101000a81548160ff0219169083151502179055509050507fb0a0a336413452342febf5e8cbc4889dfb6087aa800e39185522db5d4add1eed8989604051808381526020018281526020019250505060405180910390a16001925050509695505050505050565b600061270a61585f565b6040518061012001604052808b81526020018a8152602001898152602001888152602001878152602001868152602001858152602001848152602001600115158152509050612759600c6146e6565b6000612765600c6146fc565b905081600f6000838152602001908152602001600020600082015181600001556020820151816001015560408201518160020155606082015181600301556080820151816004015560a0820151816005015560c0820151816006015560e082015181600701556101008201518160080160006101000a81548160ff0219169083151502179055509050507fb8ef1e0b125e0a5d3b18f289cf41d89bf18d9476bf8559e17ee05460930b3ea9816040518082815260200191505060405180910390a1809250505098975050505050505050565b60008073ffffffffffffffffffffffffffffffffffffffff168273ffffffffffffffffffffffffffffffffffffffff1614156128be576040517f08c379a000000000000000000000000000000000000000000000000000000000815260040180806020018281038252602a815260200180615c07602a913960400191505060405180910390fd5b612905600360008473ffffffffffffffffffffffffffffffffffffffff1673ffffffffffffffffffffffffffffffffffffffff1681526020019081526020016000206146fc565b9050919050565b6000896010600082815260200190815260200160002060050160149054906101000a900460ff16612988576040517f08c379a0000000000000000000000000000000000000000000000000000000008152600401808060200182810382526034815260200180615b636034913960400191505060405180910390fd5b601260008c8152602001908152602001600020600081548092919060010191905055506000601260008d81526020019081526020016000205490506129cb6158bf565b6040518061012001604052808381526020018d81526020018c81526020016129f28c61470a565b60038111156129fd57fe5b81526020018a81526020018981526020018881526020018781526020018681525090507f4163636964656e740000000000000000000000000000000000000000000000008a1415612a5757612a558d86848e8b6147b0565b505b80601460008f8152602001908152602001600020600084815260200190815260200160002060008201518160000155602082015181600101556040820151816002015560608201518160030160006101000a81548160ff02191690836003811115612abe57fe5b02179055506080820151816004015560a0820151816005015560c0820151816006015560e082015181600701556101008201518160080155905050601360008e81526020019081526020016000208290806001815401808255809150509060018203906000526020600020016000909192909190915055507fbb8b82c914ae7641443b30a813e44f07ce61954d9f3cf424c5b1908b828cbe168d83604051808381526020018281526020019250505060405180910390a18193505050509998505050505050505050565b600080600083600f600082815260200190815260200160002060080160009054906101000a900460ff16612c07576040517f08c379a0000000000000000000000000000000000000000000000000000000008152600401808060200182810382526034815260200180615b636034913960400191505060405180910390fd5b6000600f60008781526020019081526020016000206005015490506000600f60008881526020019081526020016000206006015490506000600f60008981526020019081526020016000206007015490507f8b5364c0ad238d9210b730049a67b148235a53fa038f66dc04e0312e60cca5eb888484846040518085815260200184815260200183815260200182815260200194505050505060405180910390a1828282965096509650505050509193909250565b6000600f6000612ccb600c6146fc565b815260200190815260200160002060080160009054906101000a900460ff16612d3f576040517f08c379a0000000000000000000000000000000000000000000000000000000008152600401808060200182810382526035815260200180615df06035913960400191505060405180910390fd5b612d47615928565b6040518060e001604052808981526020018881526020018781526020018681526020018581526020018473ffffffffffffffffffffffffffffffffffffffff1681526020016001151581525090506000612da1600c6146fc565b90508160106000838152602001908152602001600020600082015181600001556020820151816001015560408201518160020155606082015181600301556080820151816004015560a08201518160050160006101000a81548173ffffffffffffffffffffffffffffffffffffffff021916908373ffffffffffffffffffffffffffffffffffffffff16021790555060c08201518160050160146101000a81548160ff0219169083151502179055509050507f4f02c31b9d0dbe171b4f9881155204500fb468073d711b97083869272fda397a816040518082815260200191505060405180910390a1612e948482614965565b80925050509695505050505050565b6000806000846010600082815260200190815260200160002060050160149054906101000a900460ff16612f22576040517f08c379a0000000000000000000000000000000000000000000000000000000008152600401808060200182810382526034815260200180615b636034913960400191505060405180910390fd5b85856015600083815260200190815260200160002054811115612f90576040517f08c379a0000000000000000000000000000000000000000000000000000000008152600401808060200182810382526030815260200180615b0f6030913960400191505060405180910390fd5b7ff4774513c5fa92423ee3941d687b26db97f4af37037333a4e30bc09de8b3422a8888604051808381526020018281526020019250505060405180910390a160176000898152602001908152602001600020600088815260200190815260200160002060050154601760008a8152602001908152602001600020600089815260200190815260200160002060060154601760008b815260200190815260200160002060008a8152602001908152602001600020600701549550955095505050509250925092565b600080600080856010600082815260200190815260200160002060050160149054906101000a900460ff166130d7576040517f08c379a0000000000000000000000000000000000000000000000000000000008152600401808060200182810382526034815260200180615b636034913960400191505060405180910390fd5b86866015600083815260200190815260200160002054811115613145576040517f08c379a0000000000000000000000000000000000000000000000000000000008152600401808060200182810382526030815260200180615b0f6030913960400191505060405180910390fd5b7f3aef31acc342ddab4497938cf51e2865d88e4ed53e5cfca26421e8d88f3263628989604051808381526020018281526020019250505060405180910390a1601760008a8152602001908152602001600020600089815260200190815260200160002060010154601760008b815260200190815260200160002060008a815260200190815260200160002060020154601760008c815260200190815260200160002060008b815260200190815260200160002060030154601760008d815260200190815260200160002060008c815260200190815260200160002060040154965096509650965050505092959194509250565b6060600a8054600181600116156101000203166002900480601f0160208091040260200160405190810160405280929190818152602001828054600181600116156101000203166002900480156132d05780601f106132a5576101008083540402835291602001916132d0565b820191906000526020600020905b8154815290600101906020018083116132b357829003601f168201915b5050505050905090565b60006132e58261234f565b90508073ffffffffffffffffffffffffffffffffffffffff163373ffffffffffffffffffffffffffffffffffffffff161461336b576040517f08c379a0000000000000000000000000000000000000000000000000000000008152600401808060200182810382526033815260200180615cc46033913960400191505060405180910390fd5b6002600083815260200190815260200160002060006101000a81549073ffffffffffffffffffffffffffffffffffffffff0219169055818173ffffffffffffffffffffffffffffffffffffffff167fc9296d8b5e8cf2585632e3f371cc47f943492795db8139f873c869f06d53708260405160405180910390a35050565b3373ffffffffffffffffffffffffffffffffffffffff168273ffffffffffffffffffffffffffffffffffffffff16141561348b576040517f08c379a00000000000000000000000000000000000000000000000000000000081526004018080602001828103825260198152602001807f4552433732313a20617070726f766520746f2063616c6c65720000000000000081525060200191505060405180910390fd5b80600460003373ffffffffffffffffffffffffffffffffffffffff1673ffffffffffffffffffffffffffffffffffffffff16815260200190815260200160002060008473ffffffffffffffffffffffffffffffffffffffff1673ffffffffffffffffffffffffffffffffffffffff16815260200190815260200160002060006101000a81548160ff0219169083151502179055508173ffffffffffffffffffffffffffffffffffffffff163373ffffffffffffffffffffffffffffffffffffffff167f17307eab39ab6107e8899845ad3d59bd9653f200f220920489ca2b5937696c3183604051808215151515815260200191505060405180910390a35050565b6000806000806000866010600082815260200190815260200160002060050160149054906101000a900460ff1661360e576040517f08c379a0000000000000000000000000000000000000000000000000000000008152600401808060200182810382526034815260200180615b636034913960400191505060405180910390fd5b8787601260008381526020019081526020016000205481111561367c576040517f08c379a0000000000000000000000000000000000000000000000000000000008152600401808060200182810382526032815260200180615a806032913960400191505060405180910390fd5b7fd652c6a49fc41f4e82f0ae456feacc659f59423aaa0e06c13fdbd8005cfe0a248a8a604051808381526020018281526020019250505060405180910390a1601460008b815260200190815260200160002060008a815260200190815260200160002060010154601460008c815260200190815260200160002060008b815260200190815260200160002060020154601460008d815260200190815260200160002060008c815260200190815260200160002060040154601460008e815260200190815260200160002060008d815260200190815260200160002060050154601460008f815260200190815260200160002060008e815260200190815260200160002060060154975097509750975097505050509295509295909350565b60006137a582614650565b9050919050565b6137b7848484611b5c565b6137c384848484614986565b613818576040517f08c379a0000000000000000000000000000000000000000000000000000000008152600401808060200182810382526032815260200180615add6032913960400191505060405180910390fd5b50505050565b60006010600083815260200190815260200160002060050160149054906101000a900460ff169050919050565b600060156000838152602001908152602001600020549050919050565b6000856010600082815260200190815260200160002060050160149054906101000a900460ff166138e4576040517f08c379a0000000000000000000000000000000000000000000000000000000008152600401808060200182810382526034815260200180615b636034913960400191505060405180910390fd5b6015600088815260200190815260200160002060008154809291906001019190505550600060156000898152602001908152602001600020549050613927615986565b60405180610120016040528083815260200189815260200188815260200187815260200186815260200160008019168152602001600081526020016000801916815260200160001515815250905080601760008b81526020019081526020016000206000848152602001908152602001600020600082015181600001556020820151816001015560408201518160020155606082015181600301556080820151816004015560a0820151816005015560c0820151816006015560e082015181600701556101008201518160080160006101000a81548160ff021916908315150217905550905050601660008a81526020019081526020016000208290806001815401808255809150509060018203906000526020600020016000909192909190915055507f4f8bcd088a6a061370ffb973bab11d8d077f7e0a2e32129c022d2e11469499b18983604051808381526020018281526020019250505060405180910390a181935050505095945050505050565b600080600080856010600082815260200190815260200160002060050160149054906101000a900460ff16613b19576040517f08c379a0000000000000000000000000000000000000000000000000000000008152600401808060200182810382526034815260200180615b636034913960400191505060405180910390fd5b868660116000838152602001908152602001600020600082815260200190815260200160002060040160149054906101000a900460ff16613ba5576040517f08c379a000000000000000000000000000000000000000000000000000000000815260040180806020018281038252602f815260200180615dc1602f913960400191505060405180910390fd5b6000601160008b815260200190815260200160002060008a81526020019081526020016000206001015490506000601160008c815260200190815260200160002060008b81526020019081526020016000206002015490506000601160008d815260200190815260200160002060008c81526020019081526020016000206003015490506000601160008e815260200190815260200160002060008d815260200190815260200160002060040160009054906101000a900473ffffffffffffffffffffffffffffffffffffffff1690507f3fdde172b452e4a358232194f90434f2dbbcae7357975968985284af25acdcc98d85858585604051808681526020018581526020018481526020018381526020018273ffffffffffffffffffffffffffffffffffffffff1673ffffffffffffffffffffffffffffffffffffffff1681526020019550505050505060405180910390a1838383839a509a509a509a505050505050505092959194509250565b6060613d1f82614650565b613d74576040517f08c379a000000000000000000000000000000000000000000000000000000000815260040180806020018281038252602f815260200180615d20602f913960400191505060405180910390fd5b600b60008381526020019081526020016000208054600181600116156101000203166002900480601f016020809104026020016040519081016040528092919081815260200182805460018160011615610100020316600290048015613e1b5780601f10613df057610100808354040283529160200191613e1b565b820191906000526020600020905b815481529060010190602001808311613dfe57829003601f168201915b50505050509050919050565b600080836010600082815260200190815260200160002060050160149054906101000a900460ff16613ea4576040517f08c379a0000000000000000000000000000000000000000000000000000000008152600401808060200182810382526034815260200180615b636034913960400191505060405180910390fd5b84846012600083815260200190815260200160002054811115613f12576040517f08c379a0000000000000000000000000000000000000000000000000000000008152600401808060200182810382526032815260200180615a806032913960400191505060405180910390fd5b7f3eac21ab13d2a83bb9593e889527f1254d40affe4b79d6e7d323224318f249e28787604051808381526020018281526020019250505060405180910390a1613f8e60146000898152602001908152602001600020600088815260200190815260200160002060030160009054906101000a900460ff16614b6f565b60146000898152602001908152602001600020600088815260200190815260200160002060070154945094505050509250929050565b6000600f600084815260200190815260200160002060080160009054906101000a900460ff1680156140165750600f600083815260200190815260200160002060080160009054906101000a900460ff165b61406b576040517f08c379a000000000000000000000000000000000000000000000000000000000815260040180806020018281038252603e815260200180615c5a603e913960400191505060405180910390fd5b6000600f60008581526020019081526020016000206000015490506000600f600085815260200190815260200160002060000154905084600e60008381526020019081526020016000208190555080600f60008781526020019081526020016000206000018190555083600e60008481526020019081526020016000208190555081600f6000868152602001908152602001600020600001819055507f8d07f28d790ff72df143af4064c1489a9f575f287b7939fb89807f7cba367c6f600f60008781526020019081526020016000206000015483604051808381526020018281526020019250505060405180910390a160019250505092915050565b600060126000838152602001908152602001600020549050919050565b6000600460008473ffffffffffffffffffffffffffffffffffffffff1673ffffffffffffffffffffffffffffffffffffffff16815260200190815260200160002060008373ffffffffffffffffffffffffffffffffffffffff1673ffffffffffffffffffffffffffffffffffffffff16815260200190815260200160002060009054906101000a900460ff16905092915050565b600081600f600082815260200190815260200160002060080160009054906101000a900460ff16614295576040517f08c379a0000000000000000000000000000000000000000000000000000000008152600401808060200182810382526034815260200180615b636034913960400191505060405180910390fd5b826010600082815260200190815260200160002060050160149054906101000a900460ff1661430f576040517f08c379a0000000000000000000000000000000000000000000000000000000008152600401808060200182810382526034815260200180615b636034913960400191505060405180910390fd5b6000600f600086815260200190815260200160002060080160006101000a81548160ff02191690831515021790555060006010600086815260200190815260200160002060050160146101000a81548160ff0219169083151502179055506000600f6000868152602001908152602001600020600001549050600e6000828152602001908152602001600020600090556143a885614c75565b7f74bc6d956a6ba285259c798f590b9d8ebce936b3422890a7fffc5102799f4239856040518082815260200191505060405180910390a160019350505050919050565b6000826010600082815260200190815260200160002060050160149054906101000a900460ff16614467576040517f08c379a0000000000000000000000000000000000000000000000000000000008152600401808060200182810382526034815260200180615b636034913960400191505060405180910390fd5b8260106000868152602001908152602001600020600301819055507fa3c4b165fbb780435901d7db1f7ebd0bd6c5adea4f2695446e8403d88b742a0c846010600087815260200190815260200160002060030154604051808381526020018281526020019250505060405180910390a1600191505092915050565b600080600080600085600f600082815260200190815260200160002060080160009054906101000a900460ff16614564576040517f08c379a0000000000000000000000000000000000000000000000000000000008152600401808060200182810382526034815260200180615b636034913960400191505060405180910390fd5b6000600f60008981526020019081526020016000206000015490506000600f60008a81526020019081526020016000206001015490506000600f60008b81526020019081526020016000206002015490506000600f60008c81526020019081526020016000206003015490506000600f60008d81526020019081526020016000206004015490507f6a44b6d4903a0b66c1e6aacb90297136268a503981217da40cd9bbc65873ed798c868660405180848152602001838152602001828152602001935050505060405180910390a184848484849a509a509a509a509a5050505050505091939590929450565b6000806001600084815260200190815260200160002060009054906101000a900473ffffffffffffffffffffffffffffffffffffffff169050600073ffffffffffffffffffffffffffffffffffffffff168173ffffffffffffffffffffffffffffffffffffffff161415915050919050565b6146cd838383614c8a565b6146d78382614ee5565b6146e18282615083565b505050565b6001816000016000828254019250508190555050565b600081600001549050919050565b6000807f4d6f64696669636174696f6e000000000000000000000000000000000000000083141561473e57600090506147a7565b7f4d61696e74656e616e636500000000000000000000000000000000000000000083141561476f57600190506147a6565b7f4163636964656e740000000000000000000000000000000000000000000000008314156147a057600390506147a5565b600290505b5b5b80915050919050565b600085856015600083815260200190815260200160002054811115614820576040517f08c379a0000000000000000000000000000000000000000000000000000000008152600401808060200182810382526030815260200180615b0f6030913960400191505060405180910390fd5b84601760008a815260200190815260200160002060008981526020019081526020016000206005018190555085601760008a815260200190815260200160002060008981526020019081526020016000206006018190555083601760008a81526020019081526020016000206000898152602001908152602001600020600701819055506001601760008a8152602001908152602001600020600089815260200190815260200160002060080160006101000a81548160ff02191690831515021790555086601460008a81526020019081526020016000206000888152602001908152602001600020600801819055507e7ebcbc9de26477ec28bf37f8442310623791be2aec53fc6b6b1494e80737b588888860405180848152602001838152602001828152602001935050505060405180910390a160019250505095945050505050565b61496f828261514a565b6149798282615083565b61498281615362565b5050565b60006149a78473ffffffffffffffffffffffffffffffffffffffff166153ae565b6149b45760019050614b67565b60008473ffffffffffffffffffffffffffffffffffffffff1663150b7a02338887876040518563ffffffff1660e01b8152600401808573ffffffffffffffffffffffffffffffffffffffff1673ffffffffffffffffffffffffffffffffffffffff1681526020018473ffffffffffffffffffffffffffffffffffffffff1673ffffffffffffffffffffffffffffffffffffffff16815260200183815260200180602001828103825283818151815260200191508051906020019080838360005b83811015614a8f578082015181840152602081019050614a74565b50505050905090810190601f168015614abc5780820380516001836020036101000a031916815260200191505b5095505050505050602060405180830381600087803b158015614ade57600080fd5b505af1158015614af2573d6000803e3d6000fd5b505050506040513d6020811015614b0857600080fd5b8101908080519060200190929190505050905063150b7a0260e01b7bffffffffffffffffffffffffffffffffffffffffffffffffffffffff1916817bffffffffffffffffffffffffffffffffffffffffffffffffffffffff1916149150505b949350505050565b60008060006003811115614b7f57fe5b836003811115614b8b57fe5b1415614bb9577f4d6f64696669636174696f6e00000000000000000000000000000000000000009050614c6c565b60016003811115614bc657fe5b836003811115614bd257fe5b1415614c00577f4d61696e74656e616e63650000000000000000000000000000000000000000009050614c6b565b600380811115614c0c57fe5b836003811115614c1857fe5b1415614c46577f4163636964656e742052657061697200000000000000000000000000000000009050614c6a565b7f526570616972000000000000000000000000000000000000000000000000000090505b5b5b80915050919050565b614c87614c818261234f565b826153c1565b50565b8273ffffffffffffffffffffffffffffffffffffffff16614caa8261234f565b73ffffffffffffffffffffffffffffffffffffffff1614614d16576040517f08c379a0000000000000000000000000000000000000000000000000000000008152600401808060200182810382526029815260200180615cf76029913960400191505060405180910390fd5b600073ffffffffffffffffffffffffffffffffffffffff168273ffffffffffffffffffffffffffffffffffffffff161415614d9c576040517f08c379a0000000000000000000000000000000000000000000000000000000008152600401808060200182810382526024815260200180615b3f6024913960400191505060405180910390fd5b614da58161541e565b614dec600360008573ffffffffffffffffffffffffffffffffffffffff1673ffffffffffffffffffffffffffffffffffffffff1681526020019081526020016000206154dc565b614e33600360008473ffffffffffffffffffffffffffffffffffffffff1673ffffffffffffffffffffffffffffffffffffffff1681526020019081526020016000206146e6565b816001600083815260200190815260200160002060006101000a81548173ffffffffffffffffffffffffffffffffffffffff021916908373ffffffffffffffffffffffffffffffffffffffff160217905550808273ffffffffffffffffffffffffffffffffffffffff168473ffffffffffffffffffffffffffffffffffffffff167fddf252ad1be2c89b69c2b068fc378daa952ba7f163c4a11628f55a4df523b3ef60405160405180910390a4505050565b6000614f3d6001600560008673ffffffffffffffffffffffffffffffffffffffff1673ffffffffffffffffffffffffffffffffffffffff168152602001908152602001600020805490506154ff90919063ffffffff16565b905060006006600084815260200190815260200160002054905081811461502a576000600560008673ffffffffffffffffffffffffffffffffffffffff1673ffffffffffffffffffffffffffffffffffffffff1681526020019081526020016000208381548110614faa57fe5b9060005260206000200154905080600560008773ffffffffffffffffffffffffffffffffffffffff1673ffffffffffffffffffffffffffffffffffffffff168152602001908152602001600020838154811061500257fe5b9060005260206000200181905550816006600083815260200190815260200160002081905550505b600560008573ffffffffffffffffffffffffffffffffffffffff1673ffffffffffffffffffffffffffffffffffffffff16815260200190815260200160002080548091906001900361507c91906159e6565b5050505050565b600560008373ffffffffffffffffffffffffffffffffffffffff1673ffffffffffffffffffffffffffffffffffffffff168152602001908152602001600020805490506006600083815260200190815260200160002081905550600560008373ffffffffffffffffffffffffffffffffffffffff1673ffffffffffffffffffffffffffffffffffffffff1681526020019081526020016000208190806001815401808255809150509060018203906000526020600020016000909192909190915055505050565b600073ffffffffffffffffffffffffffffffffffffffff168273ffffffffffffffffffffffffffffffffffffffff1614156151ed576040517f08c379a00000000000000000000000000000000000000000000000000000000081526004018080602001828103825260208152602001807f4552433732313a206d696e7420746f20746865207a65726f206164647265737381525060200191505060405180910390fd5b6151f681614650565b15615269576040517f08c379a000000000000000000000000000000000000000000000000000000000815260040180806020018281038252601c8152602001807f4552433732313a20746f6b656e20616c7265616479206d696e7465640000000081525060200191505060405180910390fd5b816001600083815260200190815260200160002060006101000a81548173ffffffffffffffffffffffffffffffffffffffff021916908373ffffffffffffffffffffffffffffffffffffffff160217905550615302600360008473ffffffffffffffffffffffffffffffffffffffff1673ffffffffffffffffffffffffffffffffffffffff1681526020019081526020016000206146e6565b808273ffffffffffffffffffffffffffffffffffffffff16600073ffffffffffffffffffffffffffffffffffffffff167fddf252ad1be2c89b69c2b068fc378daa952ba7f163c4a11628f55a4df523b3ef60405160405180910390a45050565b6007805490506008600083815260200190815260200160002081905550600781908060018154018082558091505090600182039060005260206000200160009091929091909150555050565b600080823b905060008111915050919050565b6153cb8282615588565b6000600b60008381526020019081526020016000208054600181600116156101000203166002900490501461541a57600b600082815260200190815260200160002060006154199190615a12565b5b5050565b600073ffffffffffffffffffffffffffffffffffffffff166002600083815260200190815260200160002060009054906101000a900473ffffffffffffffffffffffffffffffffffffffff1673ffffffffffffffffffffffffffffffffffffffff16146154d95760006002600083815260200190815260200160002060006101000a81548173ffffffffffffffffffffffffffffffffffffffff021916908373ffffffffffffffffffffffffffffffffffffffff1602179055505b50565b6154f4600182600001546154ff90919063ffffffff16565b816000018190555050565b600082821115615577576040517f08c379a000000000000000000000000000000000000000000000000000000000815260040180806020018281038252601e8152602001807f536166654d6174683a207375627472616374696f6e206f766572666c6f77000081525060200191505060405180910390fd5b600082840390508091505092915050565b61559282826155c2565b61559c8282614ee5565b600060066000838152602001908152602001600020819055506155be81615751565b5050565b8173ffffffffffffffffffffffffffffffffffffffff166155e28261234f565b73ffffffffffffffffffffffffffffffffffffffff161461564e576040517f08c379a0000000000000000000000000000000000000000000000000000000008152600401808060200182810382526025815260200180615d9c6025913960400191505060405180910390fd5b6156578161541e565b61569e600360008473ffffffffffffffffffffffffffffffffffffffff1673ffffffffffffffffffffffffffffffffffffffff1681526020019081526020016000206154dc565b60006001600083815260200190815260200160002060006101000a81548173ffffffffffffffffffffffffffffffffffffffff021916908373ffffffffffffffffffffffffffffffffffffffff16021790555080600073ffffffffffffffffffffffffffffffffffffffff168373ffffffffffffffffffffffffffffffffffffffff167fddf252ad1be2c89b69c2b068fc378daa952ba7f163c4a11628f55a4df523b3ef60405160405180910390a45050565b600061576c60016007805490506154ff90919063ffffffff16565b905060006008600084815260200190815260200160002054905060006007838154811061579557fe5b9060005260206000200154905080600783815481106157b057fe5b906000526020600020018190555081600860008381526020019081526020016000208190555060078054809190600190036157eb91906159e6565b506000600860008681526020019081526020016000208190555050505050565b6040518060c0016040528060008152602001600080191681526020016000815260200160008019168152602001600073ffffffffffffffffffffffffffffffffffffffff1681526020016000151581525090565b60405180610120016040528060008019168152602001600080191681526020016000815260200160008019168152602001600080191681526020016000815260200160008019168152602001600080191681526020016000151581525090565b604051806101200160405280600081526020016000801916815260200160008019168152602001600060038111156158f357fe5b815260200160008019168152602001600080191681526020016000801916815260200160008019168152602001600081525090565b6040518060e001604052806000815260200160008019168152602001600080191681526020016000815260200160008019168152602001600073ffffffffffffffffffffffffffffffffffffffff1681526020016000151581525090565b60405180610120016040528060008152602001600080191681526020016000801916815260200160008019168152602001600080191681526020016000801916815260200160008152602001600080191681526020016000151581525090565b815481835581811115615a0d57818360005260206000209182019101615a0c9190615a5a565b5b505050565b50805460018160011615610100020316600290046000825580601f10615a385750615a57565b601f016020900490600052602060002090810190615a569190615a5a565b5b50565b615a7c91905b80821115615a78576000816000905550600101615a60565b5090565b9056fe496e76616c696420536572766963696e672049443a20536572766963696e6720494420646f6573206e6f7420657869737473455243373231456e756d657261626c653a206f776e657220696e646578206f7574206f6620626f756e64734552433732313a207472616e7366657220746f206e6f6e20455243373231526563656976657220696d706c656d656e746572496e76616c6964204163636964656e742049443a204163636964656e7420494420646f6573206e6f74206578697374734552433732313a207472616e7366657220746f20746865207a65726f206164647265737356656869636c6520494420496e76616c69643a204e6f2056656869636c65205265676973746572656420746f20746869732049444f776e657220494420496e76616c69643a204f776e657220646f6573206e6f742065786973747320666f7220746869732076656869636c654552433732313a20617070726f76652063616c6c6572206973206e6f74206f776e6572206e6f7220617070726f76656420666f7220616c6c4552433732313a2062616c616e636520717565727920666f7220746865207a65726f20616464726573734552433732313a206f776e657220717565727920666f72206e6f6e6578697374656e7420746f6b656e56656869636c6520494420496e76616c69643a204e6f2056656869636c6573205265676973746572656420746f20746865204944732070726f76696465644552433732313a20617070726f76656420717565727920666f72206e6f6e6578697374656e7420746f6b656e4552433732313a2052656d6f76652063616c6c6572206973206e6f7420746865206f776e6572206f662074686520746f6b656e4552433732313a207472616e73666572206f6620746f6b656e2074686174206973206e6f74206f776e4552433732314d657461646174613a2055524920717565727920666f72206e6f6e6578697374656e7420746f6b656e4552433732313a20617070726f76616c20746f2063757272656e74206f776e6572455243373231456e756d657261626c653a20676c6f62616c20696e646578206f7574206f6620626f756e64734552433732313a206275726e206f6620746f6b656e2074686174206973206e6f74206f776e4f776e657220494420496e76616c69643a20506c6561736520656e74657220612076616c6964206f776e657220696456656869636c6520526567697374726174696f6e2044657461696c7320506172742031204e6f7420436f6d706c6574656420596574a265627a7a7231582078bd220e50b3f3173c9879cc24ff873d5943fd1029fe70052f646538631bcbdd64736f6c63430005100032",
  "source": "pragma solidity ^0.5.0;\r\n\r\nimport \"./ERC721Full.sol\";\r\n\r\ncontract Vehicle is ERC721Full {\r\n\r\n    // Using OpenZeppelin Counter\r\n    using Counters for Counters.Counter;\r\n    Counters.Counter private _vehicleIds;\r\n\r\n    constructor() public ERC721Full(\"Vehicle\", \"VEH\") {}\r\n\r\n    address _owner = msg.sender;\r\n\r\n    enum typeOfServicing {modification, maintenance, repair, accident}\r\n\r\n    // ---------------------------- Structs ---------------------------- //\r\n\r\n    // vehicle registration details (split into 2 to avoid stack too deep error)\r\n    struct VehRegDetails1 {\r\n        bytes32 vehicleNo; // SOC4302S\r\n        bytes32 makeModel; // Toyota Corolla Altis 1.6A\r\n        uint256 manufacturingYear; // 2020\r\n        bytes32 engineNo; // 1NZX395892\r\n        bytes32 chassisNo; // JN1FBAK12Z0000677\r\n        uint256 omv; // $19,615\r\n        bytes32 originalRegDate; // 20 Oct 2020\r\n        bytes32 effectiveRegDate; // 20 Oct 2020\r\n        bool registered; // To check if vehicle reg details 1 is completed\r\n    }\r\n\r\n    struct VehRegDetails2 {\r\n        uint256 noOfTransfers; // 0\r\n        // bytes32 primaryColour; // White (Removed to prevent stack too deep)\r\n        bytes32 engineCap; // 1,598 cc\r\n        // bytes32 maxPowerOutput; // 129 bhp (Removed to prevent stack too deep error)\r\n        bytes32 coeCat; // A - Car up to 1600cc & 97kW (130bhp)\r\n        uint256 quotaPrem; // $33,520\r\n        bytes32 owner; // Jonathan Tan\r\n        address ownerAddress; // E.g. 0x111122223333444455556666777788889999AAAABBBBCCCCDDDDEEEEFFFFCCCC\r\n        bool registered; // To check if vehicle reg details exist\r\n    }\r\n\r\n    struct VehOwnerDetails {\r\n        uint256 ownerId; // 0 - Identifier: (0 means details belong to first owner) [Correspond to no of transfer]\r\n        bytes32 ownerName; // Jonathan Tan\r\n        uint256 ownerContact; // 90004302\r\n        bytes32 ownerPhysicalAddress; // 22 Cove Way\r\n        address ownerAddress; // E.g. 0x111122223333444455556666777788889999AAAABBBBCCCCDDDDEEEEFFFFCCCC\r\n        bool exists;\r\n    }\r\n\r\n    struct VehServicingDetails {\r\n        uint256 servicingId; // 1 means it is the first servicing record\r\n        bytes32 dateCompleted; // 11 December 2020\r\n        bytes32 workshopRegNo; // 35766600C\r\n        // uint256 invoiceNo; // 5445445 (Removed to avoid stack too deep)\r\n        typeOfServicing typeOfWorkDone; // Modification/Maintenance/Repair/Accident\r\n        bytes32 appointedMechanic; // Dominic Toretto\r\n        // uint256 contactNo; // 93334302 (Removed to avoid stack too deep)\r\n        bytes32 currentMileage; // 20,000 km\r\n        bytes32 workDone; // Engine oil, oil filter, brake fluid, washer fluid, wheel alignment and balancing. Regular maintenance, recommended to change tyres for the next servicing\r\n        bytes32 totalCharges; // $189.43 (Solidity uint does not accept decimals)\r\n        uint256 accidentId; // Related to which accident record\r\n        // bytes32 remarks; // Combined with work done: Regular maintenance, recommended to change tyres for the next servicing\r\n    }\r\n\r\n    struct VehAccidentDetails {\r\n        uint256 accidentId; // 1 means it is the first accident record\r\n        bytes32 accidentDateLocation; // 11 January 2021, South Buona Vista Road\r\n        bytes32 driverName; // Jonathan Tan\r\n        bytes32 timeOfAccident; // 11:59 PM\r\n        // bytes32 location; // Combined with date (Stack too deep)\r\n        bytes32 descriptionOfAccident; // Driver lost control of the vehicle and crashed against the tree. Front bumper, headlights, hood, radiator badly damaged\r\n        // bytes32 insuranceCoName; // NTUC Income (Archived)\r\n        // bytes32 descriptionOfDamages; // Combined wwith description of accident: Front bumper, headlights, hood, radiator badly damaged\r\n        bytes32 appointedWorkshopNo; // 35766600C\r\n        uint256 servicingId; // 2 [Invoice No (removed) changed to servicing id]\r\n        bytes32 remarks; // Accident reported to the police, and filed insurance claim\r\n        bool repaired; // Check whether repair work has been done\r\n        // bool claimIssued; // Check whether claim has been issued (Archived)\r\n    }\r\n    \r\n    // ---------------------------- Mappings ---------------------------- //\r\n\r\n    // vehicleNoId[vehicle no] = vehicle id (Unique)\r\n    // E.g. vehicleNoId[SOC4302S] = 1\r\n    mapping(bytes32 => uint256) vehicleNoId;\r\n\r\n    // vehRegRecords1[vehicle id] = vehicle reg details \r\n    mapping(uint256 => VehRegDetails1) vehRegRecords1;\r\n    mapping(uint256 => VehRegDetails2) vehRegRecords2;\r\n\r\n    // vehOwnerRecords[vehicle id][no. of transfers] = owner details\r\n    // To get the full history of ownership, loop from the 1st owner to the last then retrieve all records\r\n    mapping(uint256 => mapping(uint256 => VehOwnerDetails)) vehOwnerRecords;\r\n\r\n    // noOfServicingRecords[vehicle id] = 6 (6 servicing records exists for this vehicle id)\r\n    mapping(uint256 => uint256) noOfServicingRecords;\r\n\r\n    // vehServicingIds[Vehicle ID] = uint256[] array of servicing ids;\r\n    mapping(uint256 => uint256[]) vehServicingIds;\r\n\r\n    // vehServicingRecords[vehicle id][position of record] = servicing details\r\n    mapping(uint256 => mapping(uint256 => VehServicingDetails)) vehServicingRecords;\r\n\r\n    // noOfAccidentRecords[vehicle id] = 5 (5 accident records exists for this license plate)\r\n    mapping(uint256 => uint256) noOfAccidentRecords;\r\n    \r\n    // vehAccidentIds[Vehicle ID] = uint256[] array of accident ids;\r\n    mapping(uint256 => uint256[]) vehAccidentIds;\r\n\r\n    // vehAccidentRecords[vehicle id][position of record] = accident details\r\n    mapping(uint256 => mapping(uint256 => VehAccidentDetails)) vehAccidentRecords;\r\n\r\n    // ---------------------------- Events ---------------------------- //\r\n\r\n    event vehRegDetails1Added(uint256 vehicleId);\r\n    event vehRegDetails1Returned(uint256 vehicleId, bytes32 vehicleNo, bytes32 makeModel);\r\n    event vehRegDetails1Part2Returned(uint256 vehicleId, uint256 omv, bytes32 originalRegDate, bytes32 effectiveRegDate);\r\n    event vehRegDetails1Updated(uint256 vehicleId, bytes32 newEffectiveDate);\r\n\r\n    event vehRegDetails2Added(uint256 vehicleId);\r\n    event vehRegDetails2Returned(uint256 vehicleId, bytes32 ownerName, bytes32 engineCap);\r\n    event vehRegDetails2Updated(uint256 vehicleId, uint256 quotaPrem);\r\n\r\n    event licensePlateChanged(uint256 vehicleId, bytes32 newLicensePlate);\r\n    event licensePlateSwapped(bytes32 myNewLicensePlate, bytes32 myOldLicensePlate);\r\n    event vehicleDeregistered(uint256 vehicleId);\r\n\r\n    event vehOwnerDetailsRecorded(uint256 vehicleId, uint256 ownerId);\r\n    event vehOwnershipHistoryRetrieved(uint256 vehicleId, bytes32 owner, uint256 contact, bytes32 ownerPhysicalAddress, address ownerAddress);\r\n    event vehOwnerDetailsUpdated(uint256 vehicleId, uint256 ownerId);\r\n\r\n    event vehServicingDetailsRecorded(uint256 vehicleId, uint256 newServicingId);\r\n    event vehServicingRecordsRetrieved(uint256 vehicleId);\r\n    event vehServicingHistoryRetrieved(uint256 vehicleId, uint256 servicingId);\r\n    event vehServicingHistory2Retrieved(uint256 vehicleId, uint256 servicingId);\r\n\r\n    event vehAccidentDetailsRecorded(uint256 vehicleId, uint256 newAccidentId);\r\n    event vehAccidentRecordsRetrieved(uint256 vehicleId);\r\n    // event vehInsuranceClaimIssued(uint256 vehicleId, uint256 accidentId);\r\n    event vehAccidentHistoryRetrieved(uint256 vehicleId, uint256 accidentId);\r\n    event vehAccidentHistory2Retrieved(uint256 vehicleId, uint256 accidentId);\r\n\r\n    event servicingToAccidentLinked(uint256 vehicleId, uint256 accidentId, uint256 newServicingId);\r\n    event vehTransferInfoUpdated(uint256 vehicleId, address currentOwnerAddress, address newOwnerAddress);\r\n\r\n    \r\n    // ---------------------------- Modifiers ---------------------------- //\r\n\r\n    modifier onlyOwner() {\r\n        require(msg.sender == _owner, \"Only the owner can carry out this function\");\r\n        _;\r\n    }\r\n\r\n    modifier vehicleRegDetails1Exists(uint256 vehicleId) {\r\n        require (vehRegRecords1[vehicleId].registered, 'Vehicle ID Invalid: No Vehicle Registered to this ID');\r\n        _;\r\n    }\r\n\r\n    modifier vehicleRegDetails2Exists(uint256 vehicleId) {\r\n        require (vehRegRecords2[vehicleId].registered, 'Vehicle ID Invalid: No Vehicle Registered to this ID');\r\n        _;\r\n    }\r\n\r\n    modifier ownershipDetailsExists(uint256 vehicleId, uint256 ownerId) {\r\n        require (vehOwnerRecords[vehicleId][ownerId].exists, 'Owner ID Invalid: Please enter a valid owner id');\r\n        _;\r\n    }\r\n\r\n    modifier vehicleServicingIdExists(uint256 vehicleId, uint256 servicingId) {\r\n        require(servicingId <= noOfServicingRecords[vehicleId], 'Invalid Servicing ID: Servicing ID does not exists');\r\n        _;\r\n    }\r\n\r\n    modifier vehicleAccidentIdExists(uint256 vehicleId, uint256 accidentId) {\r\n        require(accidentId <= noOfAccidentRecords[vehicleId], 'Invalid Accident ID: Accident ID does not exists');\r\n        _;\r\n    }\r\n\r\n    // ---------------------------- Functions ---------------------------- //\r\n\r\n    /**\r\n     * Function 1: 1st part of reg veh details function\r\n     * Comments:\r\n     */\r\n    function addRegisteredVeh1(\r\n        bytes32 vehicleNo,\r\n        bytes32 makeModel,\r\n        uint256 manufacturingYear,\r\n        bytes32 engineNo,\r\n        bytes32 chassisNo,\r\n        uint256 omv,\r\n        bytes32 originalRegDate,\r\n        bytes32 effectiveRegDate\r\n    ) external returns (uint256) {\r\n\r\n        VehRegDetails1 memory newVehRegDetails1 =\r\n            VehRegDetails1(\r\n                vehicleNo,\r\n                makeModel,\r\n                manufacturingYear,\r\n                engineNo,\r\n                chassisNo,\r\n                omv,\r\n                originalRegDate,\r\n                effectiveRegDate,\r\n                true\r\n            );\r\n\r\n        _vehicleIds.increment();\r\n        uint256 newVehId = _vehicleIds.current();\r\n        vehRegRecords1[newVehId] = newVehRegDetails1;\r\n\r\n        emit vehRegDetails1Added(newVehId);\r\n\r\n        return newVehId;\r\n    }\r\n\r\n    /**\r\n     * Function 2: 2nd part of add reg veh details\r\n     * Comments:\r\n     */\r\n\r\n    function addRegisteredVeh2(\r\n        uint256 noOfTransfers,\r\n        bytes32 engineCap,\r\n        bytes32 coeCat,\r\n        uint256 quotaPrem,\r\n        bytes32 owner,\r\n        address ownerAddress\r\n    ) external returns (uint256) {\r\n\r\n        require(vehRegRecords1[_vehicleIds.current()].registered, \r\n            'Vehicle Registration Details Part 1 Not Completed Yet');\r\n\r\n        VehRegDetails2 memory newVehRegDetails2 =\r\n            VehRegDetails2(\r\n                noOfTransfers, // As there might be vehicles already having more than 0 transfers\r\n                engineCap,\r\n                coeCat,\r\n                quotaPrem,\r\n                owner,\r\n                ownerAddress,\r\n                true\r\n            );\r\n\r\n        uint256 currentVehId = _vehicleIds.current();\r\n\r\n        vehRegRecords2[currentVehId] = newVehRegDetails2;\r\n\r\n        emit vehRegDetails2Added(currentVehId);\r\n\r\n        // Assign ERC721 token\r\n        _mint(ownerAddress, currentVehId);\r\n\r\n        return currentVehId;\r\n    }\r\n\r\n    /**\r\n     * Function 3: Retrieve registered vehicle details 1\r\n     * Comments:\r\n     */\r\n    function retrieveVehInfo1(uint256 vehicleId)\r\n        external vehicleRegDetails1Exists(vehicleId) returns (\r\n            bytes32,\r\n            bytes32,\r\n            uint256,\r\n            bytes32,\r\n            bytes32\r\n        )\r\n    {\r\n\r\n        bytes32 vehicleNo = vehRegRecords1[vehicleId].vehicleNo;\r\n        bytes32 makeModel = vehRegRecords1[vehicleId].makeModel;\r\n        uint256 manufacturingYear = vehRegRecords1[vehicleId].manufacturingYear;\r\n        bytes32 engineNo = vehRegRecords1[vehicleId].engineNo;\r\n        bytes32 chassisNo = vehRegRecords1[vehicleId].chassisNo;\r\n\r\n        // Emit event for testing purpose\r\n        emit vehRegDetails1Returned(vehicleId, vehicleNo, makeModel);\r\n\r\n        return (\r\n            vehicleNo,\r\n            makeModel,\r\n            manufacturingYear,\r\n            engineNo,\r\n            chassisNo\r\n        );\r\n    }\r\n\r\n    /**\r\n     * Function 4: Retrieve registered vehicle details 1 part 2\r\n     * Comments: To avoid stack too deep issue\r\n     */\r\n    function retrieveVehInfo1Part2(uint256 vehicleId)\r\n        external vehicleRegDetails1Exists(vehicleId) returns (\r\n            uint256,\r\n            bytes32,\r\n            bytes32\r\n        )\r\n    {\r\n\r\n        uint256 omv = vehRegRecords1[vehicleId].omv;\r\n        bytes32 originalRegDate = vehRegRecords1[vehicleId].originalRegDate;\r\n        bytes32 effectiveRegDate = vehRegRecords1[vehicleId].effectiveRegDate;\r\n        // Emit event for testing purpose\r\n        emit vehRegDetails1Part2Returned(vehicleId, omv, originalRegDate, effectiveRegDate);\r\n\r\n        return (\r\n            omv,\r\n            originalRegDate,\r\n            effectiveRegDate\r\n        );\r\n    }\r\n\r\n    /**\r\n     * Function 5: Retrieve registered vehicle details 2\r\n     * Comments:\r\n     */\r\n    function retrieveVehInfo2(uint256 vehicleId)\r\n        external vehicleRegDetails2Exists(vehicleId) returns (\r\n            uint256,\r\n            bytes32,\r\n            bytes32,\r\n            uint256,\r\n            bytes32\r\n        )\r\n    {\r\n\r\n        uint256 noOfTransfers = vehRegRecords2[vehicleId].noOfTransfers;\r\n        bytes32 engineCap = vehRegRecords2[vehicleId].engineCap;\r\n        bytes32 coeCat = vehRegRecords2[vehicleId].coeCat;\r\n        uint256 quotaPrem = vehRegRecords2[vehicleId].quotaPrem;\r\n        bytes32 ownerName = vehRegRecords2[vehicleId].owner;\r\n\r\n        // Emit event for testing purpose\r\n        emit vehRegDetails2Returned(vehicleId, ownerName, engineCap);\r\n\r\n        return (\r\n            noOfTransfers,\r\n            engineCap,\r\n            coeCat,\r\n            quotaPrem,\r\n            ownerName\r\n        );\r\n    }\r\n\r\n    /**\r\n     * Function 6: Update 1st part of reg veh details\r\n     * Comments: Updates can only be made to 'effective reg date' & 'vehicle no'.\r\n     * Comments2: Update of vehicle no when owner purchase new license plate no\r\n     */\r\n    function updateVehInfo1 (\r\n        uint256 vehicleId,\r\n        bytes32 _effectiveRegDate) \r\n        external vehicleRegDetails1Exists(vehicleId) returns (bool) {\r\n\r\n        // Update fields\r\n        vehRegRecords1[vehicleId].effectiveRegDate = _effectiveRegDate;\r\n\r\n        // emit event\r\n        emit vehRegDetails1Updated(vehicleId, \r\n            vehRegRecords1[vehicleId].effectiveRegDate);\r\n\r\n        return true;\r\n    }\r\n\r\n    /**\r\n     * Function 7: Change vehicle license plate no\r\n     * Comments: When owner change his vehicle license plate after sucessfully bidding a vehicle license plate\r\n     */\r\n    function updateVehNo (\r\n        uint256 vehicleId, \r\n        bytes32 _vehicleNo) \r\n        external vehicleRegDetails1Exists(vehicleId) returns (bool) {\r\n        \r\n        // Update mapping of vehicle license plate => vehicle ID\r\n        vehicleNoId[_vehicleNo] = vehicleId;\r\n\r\n        // Update fields\r\n        vehRegRecords1[vehicleId].vehicleNo = _vehicleNo;\r\n\r\n        // emit event\r\n        emit licensePlateChanged(vehicleId, \r\n            vehRegRecords1[vehicleId].vehicleNo);\r\n\r\n        return true;\r\n    }\r\n\r\n    /**\r\n     * Function 8: Swap vehicle license plate no\r\n     * Comments: When owner swap his vehicle license plate with another vehicle license plate\r\n     * Comments2: Ownership mapping does not change\r\n     */\r\n    function swapLicensePlateNo (\r\n        uint256 myVehicleId, \r\n        uint256 otherVehicleId) \r\n        external returns (bool) {\r\n        \r\n        // Check that both vehicle ids exist\r\n        require (vehRegRecords1[myVehicleId].registered\r\n            && vehRegRecords1[otherVehicleId].registered\r\n            , 'Vehicle ID Invalid: No Vehicles Registered to the IDs provided');\r\n\r\n        // Retrieve my license plate\r\n        bytes32 myLicensePlate = vehRegRecords1[myVehicleId].vehicleNo;\r\n\r\n        // Retrieve the other license plate\r\n        bytes32 otherLicensePlate = vehRegRecords1[otherVehicleId].vehicleNo;\r\n\r\n        // Update mapping of my new vehicle license plate => vehicle ID\r\n        vehicleNoId[otherLicensePlate] = myVehicleId;\r\n\r\n        // Update my license plate to the other party's license plate\r\n        vehRegRecords1[myVehicleId].vehicleNo = otherLicensePlate;\r\n\r\n        // Update mapping of other new vehicle license plate => vehicle ID\r\n        vehicleNoId[myLicensePlate] = otherVehicleId;\r\n\r\n        // Update other party's license plate to my license plate\r\n        vehRegRecords1[otherVehicleId].vehicleNo = myLicensePlate;\r\n\r\n        // Emit event\r\n        emit licensePlateSwapped(vehRegRecords1[myVehicleId].vehicleNo, \r\n            myLicensePlate);\r\n        \r\n        return true;\r\n\r\n    }\r\n\r\n    /**\r\n     * Function 9: Update 2nd part of reg veh details\r\n     * Comments: Updates can only be made to 'Quota Premium'. Other fields updated seperately below\r\n     */\r\n    function updateVehInfo2 (uint256 vehicleId, uint256 _quotaPrem) \r\n        external vehicleRegDetails2Exists(vehicleId) returns (bool) {\r\n        \r\n        // Update fields\r\n        vehRegRecords2[vehicleId].quotaPrem = _quotaPrem;\r\n\r\n        // emit event\r\n        emit vehRegDetails2Updated(vehicleId, \r\n            vehRegRecords2[vehicleId].quotaPrem);\r\n\r\n        return true;\r\n    }\r\n\r\n    /**\r\n     * Function 10: Update owner details after transfer of vehicle\r\n     * Commments: Updates made to 'No of Transfers', 'Owner Name', 'Owner address', & 'Owner Details Mapping'\r\n     */\r\n    function transferVehicleUpdate (\r\n        uint256 vehicleId, \r\n        bytes32 newOwner,\r\n        uint256 newOwnerContact, \r\n        bytes32 newOwnerPhysicalAddress,\r\n        address newOwnerAddress) \r\n        external vehicleRegDetails2Exists(vehicleId) returns (bool) {\r\n        \r\n        address currentOwnerAddress = vehRegRecords2[vehicleId].ownerAddress;\r\n\r\n        // Update fields\r\n        vehRegRecords2[vehicleId].owner = newOwner;\r\n        vehRegRecords2[vehicleId].ownerAddress = newOwnerAddress;\r\n        vehRegRecords2[vehicleId].noOfTransfers++;\r\n\r\n        // Set no. of transfers as owner id (No. of transfers = 0 = first owner)\r\n        uint256 newOwnerId = vehRegRecords2[vehicleId].noOfTransfers;\r\n\r\n        // Update the mapping using the function below\r\n        registerNewOwnerDetails(vehicleId, newOwnerId, newOwner, newOwnerContact, newOwnerPhysicalAddress, newOwnerAddress);\r\n\r\n        // emit event\r\n        emit vehTransferInfoUpdated(vehicleId, currentOwnerAddress, newOwnerAddress);\r\n\r\n        return true;\r\n    }\r\n\r\n    /**\r\n     * Function 11: De-register vehicle\r\n     * Commments: Delete token and update registered boolean after vehicle is scrapped or exported. (Not deleted)\r\n     */\r\n     function deregisterVeh(uint256 vehicleId) \r\n        external vehicleRegDetails1Exists(vehicleId) vehicleRegDetails2Exists(vehicleId)\r\n        returns (bool) {\r\n\r\n            // Update 'registered' boolean\r\n            vehRegRecords1[vehicleId].registered = false;\r\n            vehRegRecords2[vehicleId].registered = false;\r\n\r\n            // Update mapping of license plate no => vehicle id\r\n            bytes32 _vehicleNo = vehRegRecords1[vehicleId].vehicleNo;\r\n            delete vehicleNoId[_vehicleNo];\r\n\r\n            // Burn token\r\n            _burn(vehicleId);\r\n\r\n            // emit event\r\n            emit vehicleDeregistered(vehicleId);\r\n\r\n            return true;\r\n     }\r\n\r\n    /**\r\n     * Function 12: Register new owner of vehicle\r\n     * Commments: For adding new owner during ownership transfer (Input no. of transfer as owner ID)\r\n     */\r\n    function registerNewOwnerDetails(\r\n        uint256 vehicleId,\r\n        uint256 ownerId, // Corresponds to no. of transfer (0 = first owner)\r\n        bytes32 ownerName,\r\n        uint256 ownerContact,\r\n        bytes32 ownerPhysicalAddress,\r\n        address ownerAddress\r\n    ) public vehicleRegDetails2Exists(vehicleId) returns (bool) {\r\n\r\n        VehOwnerDetails memory newOwnerDetails =\r\n            VehOwnerDetails(\r\n                ownerId,\r\n                ownerName,\r\n                ownerContact,\r\n                ownerPhysicalAddress,\r\n                ownerAddress,\r\n                true\r\n            );\r\n\r\n        vehOwnerRecords[vehicleId][ownerId] = newOwnerDetails;\r\n\r\n        emit vehOwnerDetailsRecorded(vehicleId, ownerId);\r\n\r\n        return true;\r\n    }\r\n\r\n    /**\r\n     * Function 13: Retrieve ownership history\r\n     * Commments: Loop from the front end, starting from 0 to the current no. of transfer to get the full ownership history\r\n     */\r\n    function getOwnershipHistory(uint256 vehicleId, uint256 ownerId) \r\n        external \r\n            vehicleRegDetails2Exists(vehicleId) \r\n            ownershipDetailsExists(vehicleId, ownerId)\r\n            returns (\r\n                bytes32, \r\n                uint256, \r\n                bytes32,\r\n                address) {\r\n\r\n                    bytes32 owner = vehOwnerRecords[vehicleId][ownerId].ownerName;\r\n                    uint256 contact = vehOwnerRecords[vehicleId][ownerId].ownerContact;\r\n                    bytes32 ownerPhysicalAddress = vehOwnerRecords[vehicleId][ownerId].ownerPhysicalAddress;\r\n                    address ownerAddress = vehOwnerRecords[vehicleId][ownerId].ownerAddress;\r\n                    // emit event\r\n                    emit vehOwnershipHistoryRetrieved(vehicleId, owner, contact, ownerPhysicalAddress, ownerAddress);\r\n                    \r\n                    return (owner, contact, ownerPhysicalAddress, ownerAddress);\r\n\r\n    }\r\n\r\n    /**\r\n     * Function 14: Update vehicle ownership details\r\n     * Comments: Only can update the current owner's details (previous owner's details fixed)\r\n     */\r\n    function updateOwnerDetails (\r\n        uint256 vehicleId, \r\n        bytes32 _ownerName, \r\n        uint256 _ownerContact,\r\n        bytes32 _ownerPhysicalAddress) \r\n        external vehicleRegDetails2Exists(vehicleId) returns (bool) {\r\n            \r\n            // No. of transfers = 0 (0 refers to the first owner with ownerId = 0)\r\n            uint256 ownerId = getNoOfTransfers(vehicleId);\r\n\r\n            require (vehOwnerRecords[vehicleId][ownerId].exists, 'Owner ID Invalid: Owner does not exists for this vehicle');\r\n            \r\n            // Update fields\r\n            vehOwnerRecords[vehicleId][ownerId].ownerName = _ownerName;\r\n            vehOwnerRecords[vehicleId][ownerId].ownerContact = _ownerContact;\r\n            vehOwnerRecords[vehicleId][ownerId].ownerPhysicalAddress = _ownerPhysicalAddress;\r\n\r\n            // emit event\r\n            emit vehOwnerDetailsUpdated(vehicleId, ownerId);\r\n\r\n            return true;\r\n    }\r\n\r\n    /**\r\n     * Function 15: Add servicing record function\r\n     * Comments: 'servicing id' derived from mapping of noOfServicingRecords[Vehicle ID]. (1 = first servicing record)\r\n     */\r\n    function addServicingRec(\r\n        uint256 vehicleId,\r\n        bytes32 dateCompleted,\r\n        bytes32 workshopRegNo,\r\n        bytes32 typeOfWorkDone,\r\n        bytes32 appointedMechanic,\r\n        bytes32 currentMileage,\r\n        bytes32 workDone,\r\n        bytes32 totalCharges,\r\n        uint256 accidentId // Omitted unless typeOfWorkDone = \"Accident\" (Frontend hide this field unless accident is selected)\r\n    ) external vehicleRegDetails2Exists(vehicleId) returns (uint256) {\r\n\r\n        // Increment the number of servicing record for this vehicle\r\n        noOfServicingRecords[vehicleId]++;\r\n\r\n        // ServicingID = 1 means it is the first record\r\n        uint256 newServicingId = noOfServicingRecords[vehicleId];\r\n\r\n        VehServicingDetails memory newServicingDetails =\r\n            VehServicingDetails(\r\n                newServicingId,\r\n                dateCompleted,\r\n                workshopRegNo,\r\n                setTypeOfServicingEnum(typeOfWorkDone),\r\n                appointedMechanic,\r\n                currentMileage,\r\n                workDone,\r\n                totalCharges,\r\n                accidentId // Default: accident id = 0 (Link to no record)\r\n            );\r\n\r\n        // Link to accident record if its accident-related servicing:\r\n        if (typeOfWorkDone == bytes32(\"Accident\")) {\r\n            linkToAccidentRecord(vehicleId, accidentId, newServicingId, workshopRegNo, workDone);\r\n        }\r\n\r\n        vehServicingRecords[vehicleId][newServicingId] = newServicingDetails;\r\n\r\n        // Update vehServicingIds mapping\r\n        vehServicingIds[vehicleId].push(newServicingId);\r\n\r\n        emit vehServicingDetailsRecorded(vehicleId, newServicingId);\r\n\r\n        return newServicingId;\r\n    }\r\n\r\n    /**\r\n     * Function XX: Retrieve servicing history\r\n     * Commments: Loop from the front end to get the full servicing history\r\n     */\r\n    function retrieveServHistory1(uint256 vehicleId, uint256 servicingId) \r\n        external \r\n            vehicleRegDetails2Exists(vehicleId) \r\n            vehicleServicingIdExists(vehicleId, servicingId)\r\n            returns (\r\n                bytes32,\r\n                bytes32, \r\n                bytes32,\r\n                bytes32,\r\n                bytes32) {\r\n\r\n                    // emit event\r\n                    emit vehServicingHistoryRetrieved(vehicleId, servicingId);\r\n                    \r\n                    return (\r\n                        vehServicingRecords[vehicleId][servicingId].dateCompleted,\r\n                        vehServicingRecords[vehicleId][servicingId].workshopRegNo,\r\n                        vehServicingRecords[vehicleId][servicingId].appointedMechanic,\r\n                        vehServicingRecords[vehicleId][servicingId].currentMileage,\r\n                        vehServicingRecords[vehicleId][servicingId].workDone\r\n                    );\r\n    }\r\n\r\n    /**\r\n     * Function 18: Retrieve type of servicing done\r\n     * Commments: To avoid stack too deep issue (Helper function: getBytes32FromEnum)\r\n     */\r\n    function retrieveServHistory2(uint256 vehicleId, uint256 servicingId) external\r\n        vehicleRegDetails2Exists(vehicleId) \r\n        vehicleServicingIdExists(vehicleId, servicingId)\r\n        returns (bytes32, bytes32) {\r\n\r\n            // emit event\r\n            emit vehServicingHistory2Retrieved(vehicleId, servicingId);\r\n\r\n            return (\r\n                getBytes32FromEnum(vehServicingRecords[vehicleId][servicingId].typeOfWorkDone),\r\n                vehServicingRecords[vehicleId][servicingId].totalCharges\r\n            );\r\n\r\n    }\r\n\r\n    /**\r\n     * Function 19: Add accident record function\r\n     * Commments:\r\n     */\r\n    function addAccidentRec(\r\n        uint256 vehicleId,\r\n        bytes32 accidentDateLocation,\r\n        bytes32 driverName,\r\n        bytes32 timeOfAccident,\r\n        bytes32 descriptionOfAccident\r\n        // bytes32 insuranceCoName, // Archived\r\n        // bytes32 appointedWorkshopNo, // Completed by linkToAccidentRecord\r\n        // uint256 servicingId, // Completed by linkToAccidentRecord\r\n        // bytes32 remarks // Completed by linkToAccidentRecord\r\n    ) external vehicleRegDetails2Exists(vehicleId) returns (uint256) {\r\n\r\n        // Increment the number of accident record for this vehicle\r\n        noOfAccidentRecords[vehicleId]++;\r\n\r\n        // Accident ID = 1 means it is the first record\r\n        uint256 newAccidentId = noOfAccidentRecords[vehicleId];\r\n\r\n        VehAccidentDetails memory newAccidentDetails =\r\n            VehAccidentDetails(\r\n                newAccidentId,\r\n                accidentDateLocation,\r\n                driverName,\r\n                timeOfAccident,\r\n                descriptionOfAccident,\r\n                // insuranceCoName, // Archived\r\n                bytes32(\"\"), // appointedWorkshopRegNo = undefined\r\n                0, // Default servicing id = 0 (no servicing id recorded yet)\r\n                bytes32(\"\"), // remarks = undefined\r\n                false // repaired boolean\r\n                // false // Archived\r\n            );\r\n\r\n        vehAccidentRecords[vehicleId][newAccidentId] = newAccidentDetails;\r\n\r\n        // Update vehAccidentIds mapping\r\n        vehAccidentIds[vehicleId].push(newAccidentId);\r\n\r\n        emit vehAccidentDetailsRecorded(vehicleId, newAccidentId);\r\n\r\n        return newAccidentId;\r\n    }\r\n\r\n    /**\r\n     * Function 20: Update accident claim status\r\n     * Comments: For insurance company to update the accident claim status\r\n     */\r\n    // function updateClaimStatus(uint256 vehicleId, uint256 accidentId) \r\n    //     external vehicleRegDetails2Exists(vehicleId) \r\n    //     vehicleAccidentIdExists(vehicleId, accidentId) returns (bool) {\r\n\r\n    //         // Update claim status boolean\r\n    //         vehAccidentRecords[vehicleId][accidentId].claimIssued = true;\r\n            \r\n    //         // emit event\r\n    //         emit vehInsuranceClaimIssued(vehicleId, accidentId);\r\n\r\n    //         return true;\r\n    // }\r\n\r\n    /**\r\n     * Function 21: Retrieve accident history\r\n     * Commments: Loop from the front end to get the full accident history\r\n     */\r\n    function getAccidentHistory1(uint256 vehicleId, uint256 accidentId) \r\n        external \r\n            vehicleRegDetails2Exists(vehicleId) \r\n            vehicleAccidentIdExists(vehicleId, accidentId)\r\n            returns (\r\n                bytes32,\r\n                bytes32, \r\n                bytes32,\r\n                bytes32) {\r\n\r\n                    // Emit event\r\n                    emit vehAccidentHistoryRetrieved(vehicleId, accidentId);\r\n                    \r\n                    return (\r\n                        vehAccidentRecords[vehicleId][accidentId].accidentDateLocation,\r\n                        vehAccidentRecords[vehicleId][accidentId].driverName,\r\n                        vehAccidentRecords[vehicleId][accidentId].timeOfAccident,\r\n                        vehAccidentRecords[vehicleId][accidentId].descriptionOfAccident\r\n                        // vehAccidentRecords[vehicleId][accidentId].insuranceCoName // Archived\r\n                    );\r\n    }\r\n\r\n    /**\r\n     * Function 22: Retrieve accident history 2\r\n     * Commments: To avoid stack too deep issue\r\n     */\r\n    function getAccidentHistory2(uint256 vehicleId, uint256 accidentId) \r\n        external \r\n            vehicleRegDetails2Exists(vehicleId) \r\n            vehicleAccidentIdExists(vehicleId, accidentId)\r\n            returns (\r\n                bytes32,\r\n                uint256,\r\n                bytes32) {\r\n                \r\n                // Emit event\r\n                emit vehAccidentHistory2Retrieved(vehicleId, accidentId);\r\n\r\n                return (\r\n                    vehAccidentRecords[vehicleId][accidentId].appointedWorkshopNo,\r\n                    vehAccidentRecords[vehicleId][accidentId].servicingId,\r\n                    vehAccidentRecords[vehicleId][accidentId].remarks\r\n                    // vehAccidentRecords[vehicleId][accidentId].claimIssued\r\n                );\r\n\r\n    }\r\n\r\n    /**\r\n     * Function 23: Retrieve all servicing records on vehicle id\r\n     * Commments:\r\n     */\r\n    function getAllVehServicingRecords(uint256 vehicleId) external\r\n        vehicleRegDetails2Exists(vehicleId) returns (uint256[] memory) {\r\n\r\n            // Emit event\r\n            emit vehServicingRecordsRetrieved(vehicleId);\r\n\r\n            return vehServicingIds[vehicleId];\r\n\r\n    }\r\n\r\n    /**\r\n     * Function 24: Retrieve all accident records on vehicle id\r\n     * Commments:\r\n     */\r\n    function getAllVehAccidentRecords(uint256 vehicleId) external\r\n        vehicleRegDetails2Exists(vehicleId) returns (uint256[] memory) {\r\n\r\n            // Emit event\r\n            emit vehAccidentRecordsRetrieved(vehicleId);\r\n\r\n            return vehAccidentIds[vehicleId];\r\n\r\n    }\r\n\r\n    // ---------------------------- Helper functions ---------------------------- //\r\n    \r\n    function getOwnerOfContract() public view returns (address) {\r\n        return _owner;\r\n    }\r\n\r\n    function getCurrentVehOwnerAddress(uint256 vehicleId) external view returns (address){\r\n        return vehRegRecords2[vehicleId].ownerAddress;\r\n    }\r\n\r\n    function getNoOfTransfers(uint256 vehicleId) public view returns (uint256) {\r\n        return vehRegRecords2[vehicleId].noOfTransfers;\r\n    }\r\n\r\n    function getNoOfServicingRecords(uint256 vehicleId) public view returns (uint256) {\r\n        return noOfServicingRecords[vehicleId];\r\n    }\r\n\r\n    function getNoOfAccidentRecords(uint256 vehicleId) public view returns (uint256) {\r\n        return noOfAccidentRecords[vehicleId];\r\n    }\r\n\r\n    // Custom function to avoid stack too deep\r\n    function setTypeOfServicingEnum(bytes32 typeOfWorkDone)\r\n        internal\r\n        pure\r\n        returns (typeOfServicing)\r\n    {\r\n        // Setting the enum\r\n        typeOfServicing _typeOfServicing;\r\n\r\n        // (compareStrings(bytes32ToString(typeOfWorkDone), \"modification\"))\r\n        if (typeOfWorkDone == bytes32(\"Modification\")) {\r\n            _typeOfServicing = typeOfServicing.modification;\r\n        } else if (typeOfWorkDone == bytes32(\"Maintenance\")) {\r\n            _typeOfServicing = typeOfServicing.maintenance;\r\n        } else if (typeOfWorkDone == bytes32(\"Accident\")) {\r\n            _typeOfServicing = typeOfServicing.accident;\r\n        } else {\r\n            _typeOfServicing = typeOfServicing.repair;\r\n        }\r\n\r\n        return _typeOfServicing;\r\n    }\r\n\r\n    // Custom function to derive bytes32 from enum to avoid stack too deep\r\n    function getBytes32FromEnum(typeOfServicing typeOfWorkDone)\r\n        internal\r\n        pure\r\n        returns (bytes32)\r\n    {\r\n        // Setting the enum\r\n        bytes32 _typeOfServicing;\r\n\r\n        // (compareStrings(bytes32ToString(typeOfWorkDone), \"modification\"))\r\n        if (typeOfWorkDone == typeOfServicing.modification) {\r\n            _typeOfServicing = \"Modification\";\r\n        } else if (typeOfWorkDone == typeOfServicing.maintenance) {\r\n            _typeOfServicing = \"Maintenance\";\r\n        } else if (typeOfWorkDone == typeOfServicing.accident){\r\n            _typeOfServicing = \"Accident Repair\";\r\n        } else {\r\n            _typeOfServicing = \"Repair\";\r\n        }\r\n\r\n        return _typeOfServicing;\r\n    }\r\n\r\n    // Function for converting bytes32 to string\r\n    function bytes32ToString(bytes32 _bytes32)\r\n        internal\r\n        pure\r\n        returns (string memory)\r\n    {\r\n        uint8 i = 0;\r\n        while (i < 32 && _bytes32[i] != 0) {\r\n            i++;\r\n        }\r\n\r\n        bytes memory bytesArray = new bytes(i);\r\n        for (i = 0; i < 32 && _bytes32[i] != 0; i++) {\r\n            bytesArray[i] = _bytes32[i];\r\n        }\r\n        return string(bytesArray);\r\n    }\r\n\r\n    // Function to compare strings\r\n    function compareStrings(string memory a, string memory b)\r\n        internal\r\n        pure\r\n        returns (bool)\r\n    {\r\n        return (keccak256(abi.encodePacked((a))) ==\r\n            keccak256(abi.encodePacked((b))));\r\n    }\r\n\r\n    // Function to test whether vehicle exists\r\n    function doesVehicleExists(uint256 vehicleId) external view returns (bool) {\r\n        return vehRegRecords2[vehicleId].registered;\r\n    }\r\n\r\n    // Function to test whether ERC721 token exists\r\n    function doesERC721TokenExists(uint256 tokenId) external view returns (bool) {\r\n        return _exists(tokenId);\r\n    }\r\n\r\n    // Helper function to link servicing record to accident record if it is an accident-related servicing\r\n    function linkToAccidentRecord(\r\n        uint256 vehicleId, \r\n        uint256 accidentId, \r\n        uint256 newServicingId, \r\n        bytes32 workshopRegNo, \r\n        bytes32 workDone) internal vehicleAccidentIdExists(vehicleId, accidentId) returns (bool) {\r\n\r\n            vehAccidentRecords[vehicleId][accidentId].appointedWorkshopNo = workshopRegNo;\r\n            vehAccidentRecords[vehicleId][accidentId].servicingId = newServicingId;\r\n            vehAccidentRecords[vehicleId][accidentId].remarks = workDone; // remarks = workdone\r\n            vehAccidentRecords[vehicleId][accidentId].repaired = true;\r\n            vehServicingRecords[vehicleId][newServicingId].accidentId = accidentId;\r\n\r\n            // emit event\r\n            emit servicingToAccidentLinked(vehicleId, accidentId, newServicingId);\r\n\r\n            return true;\r\n\r\n    }\r\n\r\n}",
  "sourcePath": "C:\\Users\\ASUS\\Documents\\is4302-vehicle-registry\\contracts\\Vehicle.sol",
  "compiler": {
    "name": "solc",
    "version": "0.5.16+commit.9c3226ce.Emscripten.clang"
  },
  "schemaVersion": "3.3.3",
  "updatedAt": "2021-04-09T14:36:03.960Z",
  "devdoc": {
    "methods": {
      "approve(address,uint256)": {
        "details": "Approves another address to transfer the given token ID The zero address indicates there is no approved address. There can only be one approved address per token at a given time. Can only be called by the token owner or an approved operator.",
        "params": {
          "to": "address to be approved for the given token ID",
          "tokenId": "uint256 ID of the token to be approved"
        }
      },
      "balanceOf(address)": {
        "details": "Gets the balance of the specified address.",
        "params": {
          "owner": "address to query the balance of"
        },
        "return": "uint256 representing the amount owned by the passed address"
      },
      "getApproved(uint256)": {
        "details": "Gets the approved address for a token ID, or zero if no address set Reverts if the token ID does not exist.",
        "params": {
          "tokenId": "uint256 ID of the token to query the approval of"
        },
        "return": "address currently approved for the given token ID"
      },
      "isApprovedForAll(address,address)": {
        "details": "Tells whether an operator is approved by a given owner.",
        "params": {
          "operator": "operator address which you want to query the approval of",
          "owner": "owner address which you want to query the approval of"
        },
        "return": "bool whether the given operator is approved by the given owner"
      },
      "name()": {
        "details": "Gets the token name.",
        "return": "string representing the token name"
      },
      "ownerOf(uint256)": {
        "details": "Gets the owner of the specified token ID.",
        "params": {
          "tokenId": "uint256 ID of the token to query the owner of"
        },
        "return": "address currently marked as the owner of the given token ID"
      },
      "safeTransferFrom(address,address,uint256)": {
        "details": "Safely transfers the ownership of a given token ID to another address If the target address is a contract, it must implement `onERC721Received`, which is called upon a safe transfer, and return the magic value `bytes4(keccak256(\"onERC721Received(address,address,uint256,bytes)\"))`; otherwise, the transfer is reverted. Requires the msg.sender to be the owner, approved, or operator",
        "params": {
          "from": "current owner of the token",
          "to": "address to receive the ownership of the given token ID",
          "tokenId": "uint256 ID of the token to be transferred"
        }
      },
      "safeTransferFrom(address,address,uint256,bytes)": {
        "details": "Safely transfers the ownership of a given token ID to another address If the target address is a contract, it must implement `onERC721Received`, which is called upon a safe transfer, and return the magic value `bytes4(keccak256(\"onERC721Received(address,address,uint256,bytes)\"))`; otherwise, the transfer is reverted. Requires the msg.sender to be the owner, approved, or operator",
        "params": {
          "_data": "bytes data to send along with a safe transfer check",
          "from": "current owner of the token",
          "to": "address to receive the ownership of the given token ID",
          "tokenId": "uint256 ID of the token to be transferred"
        }
      },
      "setApprovalForAll(address,bool)": {
        "details": "Sets or unsets the approval of a given operator An operator is allowed to transfer all tokens of the sender on their behalf.",
        "params": {
          "approved": "representing the status of the approval to be set",
          "to": "operator address to set the approval"
        }
      },
      "supportsInterface(bytes4)": {
        "details": "See `IERC165.supportsInterface`.      * Time complexity O(1), guaranteed to always use less than 30 000 gas."
      },
      "symbol()": {
        "details": "Gets the token symbol.",
        "return": "string representing the token symbol"
      },
      "tokenByIndex(uint256)": {
        "details": "Gets the token ID at a given index of all the tokens in this contract Reverts if the index is greater or equal to the total number of tokens.",
        "params": {
          "index": "uint256 representing the index to be accessed of the tokens list"
        },
        "return": "uint256 token ID at the given index of the tokens list"
      },
      "tokenOfOwnerByIndex(address,uint256)": {
        "details": "Gets the token ID at a given index of the tokens list of the requested owner.",
        "params": {
          "index": "uint256 representing the index to be accessed of the requested tokens list",
          "owner": "address owning the tokens list to be accessed"
        },
        "return": "uint256 token ID at the given index of the tokens list owned by the requested address"
      },
      "tokenURI(uint256)": {
        "details": "Returns an URI for a given token ID. Throws if the token ID does not exist. May return an empty string.",
        "params": {
          "tokenId": "uint256 ID of the token to query"
        }
      },
      "totalSupply()": {
        "details": "Gets the total amount of tokens stored by the contract.",
        "return": "uint256 representing the total amount of tokens"
      },
      "transferFrom(address,address,uint256)": {
        "details": "Transfers the ownership of a given token ID to another address. Usage of this method is discouraged, use `safeTransferFrom` whenever possible. Requires the msg.sender to be the owner, approved, or operator.",
        "params": {
          "from": "current owner of the token",
          "to": "address to receive the ownership of the given token ID",
          "tokenId": "uint256 ID of the token to be transferred"
        }
      }
    }
  },
  "userdoc": {
    "methods": {
      "addAccidentRec(uint256,bytes32,bytes32,bytes32,bytes32)": {
        "notice": "Function 19: Add accident record function Commments:"
      },
      "addRegisteredVeh1(bytes32,bytes32,uint256,bytes32,bytes32,uint256,bytes32,bytes32)": {
        "notice": "Function 1: 1st part of reg veh details function Comments:"
      },
      "addRegisteredVeh2(uint256,bytes32,bytes32,uint256,bytes32,address)": {
        "notice": "Function 2: 2nd part of add reg veh details Comments:"
      },
      "addServicingRec(uint256,bytes32,bytes32,bytes32,bytes32,bytes32,bytes32,bytes32,uint256)": {
        "notice": "Function 15: Add servicing record function Comments: 'servicing id' derived from mapping of noOfServicingRecords[Vehicle ID]. (1 = first servicing record)"
      },
      "deregisterVeh(uint256)": {
        "notice": "Function 11: De-register vehicle Commments: Delete token and update registered boolean after vehicle is scrapped or exported. (Not deleted)"
      },
      "getAccidentHistory1(uint256,uint256)": {
        "notice": "Function 21: Retrieve accident history Commments: Loop from the front end to get the full accident history"
      },
      "getAccidentHistory2(uint256,uint256)": {
        "notice": "Function 22: Retrieve accident history 2 Commments: To avoid stack too deep issue"
      },
      "getAllVehAccidentRecords(uint256)": {
        "notice": "Function 24: Retrieve all accident records on vehicle id Commments:"
      },
      "getAllVehServicingRecords(uint256)": {
        "notice": "Function 23: Retrieve all servicing records on vehicle id Commments:"
      },
      "getOwnershipHistory(uint256,uint256)": {
        "notice": "Function 13: Retrieve ownership history Commments: Loop from the front end, starting from 0 to the current no. of transfer to get the full ownership history"
      },
      "registerNewOwnerDetails(uint256,uint256,bytes32,uint256,bytes32,address)": {
        "notice": "Function 12: Register new owner of vehicle Commments: For adding new owner during ownership transfer (Input no. of transfer as owner ID)"
      },
      "removeApproval(uint256)": {
        "notice": "Custom function to remove approval      "
      },
      "retrieveServHistory1(uint256,uint256)": {
        "notice": "Function XX: Retrieve servicing history Commments: Loop from the front end to get the full servicing history"
      },
      "retrieveServHistory2(uint256,uint256)": {
        "notice": "Function 18: Retrieve type of servicing done Commments: To avoid stack too deep issue (Helper function: getBytes32FromEnum)"
      },
      "retrieveVehInfo1(uint256)": {
        "notice": "Function 3: Retrieve registered vehicle details 1 Comments:"
      },
      "retrieveVehInfo1Part2(uint256)": {
        "notice": "Function 4: Retrieve registered vehicle details 1 part 2 Comments: To avoid stack too deep issue"
      },
      "retrieveVehInfo2(uint256)": {
        "notice": "Function 5: Retrieve registered vehicle details 2 Comments:"
      },
      "swapLicensePlateNo(uint256,uint256)": {
        "notice": "Function 8: Swap vehicle license plate no Comments: When owner swap his vehicle license plate with another vehicle license plate Comments2: Ownership mapping does not change"
      },
      "transferVehicleUpdate(uint256,bytes32,uint256,bytes32,address)": {
        "notice": "Function 10: Update owner details after transfer of vehicle Commments: Updates made to 'No of Transfers', 'Owner Name', 'Owner address', & 'Owner Details Mapping'"
      },
      "updateOwnerDetails(uint256,bytes32,uint256,bytes32)": {
        "notice": "Function 14: Update vehicle ownership details Comments: Only can update the current owner's details (previous owner's details fixed)"
      },
      "updateVehInfo1(uint256,bytes32)": {
        "notice": "Function 6: Update 1st part of reg veh details Comments: Updates can only be made to 'effective reg date' & 'vehicle no'. Comments2: Update of vehicle no when owner purchase new license plate no"
      },
      "updateVehInfo2(uint256,uint256)": {
        "notice": "Function 9: Update 2nd part of reg veh details Comments: Updates can only be made to 'Quota Premium'. Other fields updated seperately below"
      },
      "updateVehNo(uint256,bytes32)": {
        "notice": "Function 7: Change vehicle license plate no Comments: When owner change his vehicle license plate after sucessfully bidding a vehicle license plate"
      }
    }
  }
}